:020000040800F2
:10000000000003200D490008BD090008BF090008D1
:10001000C1090008C3090008C50900080000000064
:100020000000000000000000000000003140000857
:10003000C709000800000000D1400008C73B0008C5
:100040005D4900085D4900085D4900085D490008F8
:100050005D4900085D4900085D4900085D490008E8
:100060005D4900085D4900085D4900085D490008D8
:100070005D4900085D4900085D4900085D490008C8
:100080005D4900085D4900085D4900085D490008B8
:100090005D4900085D4900085D4900085D490008A8
:1000A0005D490008C90900085D4900085D4900086C
:1000B0005D4900085D4900085D4900085D49000888
:1000C0005D4900085D4900085D4900085D49000878
:1000D0005D490008D90900085D4900085D4900082C
:1000E0005D4900085D4900085D4900085D49000858
:1000F0005D4900085D4900085D4900085D49000848
:100100005D4900085D4900085D4900085D49000837
:100110005D4900085D4900085D4900085D49000827
:100120005D4900085D490008E90900085D490008CB
:100130005D4900085D4900085D4900085D49000807
:100140005D4900085D4900085D4900085D490008F7
:100150005D4900085D490008F90900085D4900088B
:100160005D4900085D4900085D4900085D490008D7
:100170005D4900085D4900085D4900080000000075
:100180005D4900085D4900085D4900085D490008B7
:100190005D4900085D4900085D4900085D490008A7
:0C01A0005D4900085D4900085D49000849
:1001B00010B5054C237833B9044B13B10448AFF3A1
:1001C00000800123237010BD1801002000000000F2
:1001D000A0EE000808B5034B1BB103490348AFF379
:1001E000008008BD000000001C010020A0EE0008F7
:1001F000034613F8012B002AFBD1181A0138704767
:1002000001F0FF01102A2BDB10F0070F08D010F8C7
:10021000013B013A8B422DD010F0070F42B3F6D1CB
:10022000F0B441EA012141EA014122F007047FF0E4
:1002300000070023F0E80256083C85EA010586EA3B
:10024000010685FA47F5A3FA87F586FA47F6A5FA77
:1002500087F68EB9EED1F0BC01F0FF0102F0070283
:1002600032B110F8013B013A83EA010313B1F8D12E
:100270000020704701387047002D06BF354603380F
:10028000073815F0010F07D1013015F4807F02BF48
:10029000013015F4C03F0130F0BC0138704700BF99
:1002A0007BB972B90029BEBF00204FF0004106E0C3
:1002B00008BF00281CBF6FF000414FF0FF3000F076
:1002C000BFB9ADF1080C6DE904CE002909DB002BA4
:1002D0001ADB00F04DF8DDF804E0DDE9022304B09C
:1002E0007047404261EB4101002B1BDB00F040F8FE
:1002F000DDF804E0DDE9022304B0404261EB410196
:10030000524263EB43037047524263EB430300F0F6
:100310002FF8DDF804E0DDE9022304B0404261EB90
:1003200041017047524263EB430300F021F8DDF8CE
:1003300004E0DDE9022304B0524263EB430370475B
:1003400053B94AB9002908BF00281CBF4FF0FF313C
:100350004FF0FF3000F074B9ADF1080C6DE904CE38
:1003600000F006F8DDF804E0DDE9022304B0704790
:100370002DE9F047089D04468E46002B4DD18A4258
:10038000944669D9B2FA82F252B101FA02F3C2F18B
:10039000200120FA01F10CFA02FC41EA030E94401C
:1003A0004FEA1C48210CBEFBF8F61FFA8CF708FB3D
:1003B00016E341EA034306FB07F199420AD91CEB15
:1003C000030306F1FF3080F01F81994240F21C8147
:1003D000023E63445B1AA4B2B3FBF8F008FB10338F
:1003E00044EA034400FB07F7A7420AD91CEB0404C4
:1003F00000F1FF3380F00A81A74240F20781644494
:10040000023840EA0640E41B00261DB1D440002318
:10041000C5E900433146BDE8F0878B4209D9002D7C
:1004200000F0EF800026C5E9000130463146BDE806
:10043000F087B3FA83F6002E4AD18B4202D3824270
:1004400000F2F980841A61EB030301209E46002D1F
:10045000E0D0C5E9004EDDE702B9FFDEB2FA82F274
:10046000002A40F09280A1EB0C014FEA1C471FFAD2
:100470008CFE0126200CB1FBF7F307FB131140EAB9
:1004800001410EFB03F0884208D91CEB010103F186
:10049000FF3802D2884200F2CB804346091AA4B248
:1004A000B1FBF7F007FB101144EA01440EFB00FE1C
:1004B000A64508D91CEB040400F1FF3102D2A64581
:1004C00000F2BB800846A4EB0E0440EA03409CE720
:1004D000C6F12007B34022FA07FC4CEA030C20FACD
:1004E00007F401FA06F31C43F9404FEA1C4900FAED
:1004F00006F3B1FBF9F8200C1FFA8CFE09FB18116A
:1005000040EA014108FB0EF0884202FA06F20BD9DC
:100510001CEB010108F1FF3A80F08880884240F22C
:100520008580A8F102086144091AA4B2B1FBF9F070
:1005300009FB101144EA014100FB0EFE8E4508D96B
:100540001CEB010100F1FF346CD28E456AD90238F0
:10055000614440EA0840A0FB0294A1EB0E01A142D5
:10056000C846A64656D353D05DB1B3EB080261EB43
:100570000E0101FA07F722FA06F3F1401F43C5E91D
:10058000007100263146BDE8F087C2F12003D84053
:100590000CFA02FC21FA03F3914001434FEA1C4795
:1005A0001FFA8CFEB3FBF7F007FB10360B0C43EA87
:1005B000064300FB0EF69E4204FA02F408D91CEB37
:1005C000030300F1FF382FD29E422DD90238634435
:1005D0009B1B89B2B3FBF7F607FB163341EA0341D5
:1005E00006FB0EF38B4208D91CEB010106F1FF3824
:1005F00016D28B4214D9023E6144C91A46EA00461B
:1006000038E72E46284605E70646E3E61846F8E6AC
:100610004B45A9D2B9EB020864EB0C0E0138A3E7F5
:100620004646EAE7204694E74046D1E7D0467BE7D6
:10063000023B614432E7304609E76444023842E74E
:10064000704700BF10F8012B11F8013B012A28BFA9
:100650009A42F7D0D01A704708B50268034B9A4205
:1006600000D008BD01F086F9FBE700BF00000140A3
:1006700072B6FEE700B595B03022002108A804F05C
:10068000CBF90023039304930593069307930193F7
:10069000224A116C41F080511164126C02F08052B8
:1006A0000192019A02931E4A116841F4404111607F
:1006B000126802F440420292029A02220892012138
:1006C0000B9110210C910E920F9308231093B423D9
:1006D000119312920423139308A800F0F5F9B0B90E
:1006E00001F098F8A8B90F23039302230493002381
:1006F00005934FF4A05306934FF4805307930521BD
:1007000003A800F02FFC30B915B05DF804FBFFF72B
:10071000AFFFFFF7ADFFFFF7ABFF00BF00380240B0
:100720000070004082B0002100910B4B1A6B42F028
:1007300080021A631A6B02F080020092009A019103
:100740001A6B42F001021A631B6B03F00103019361
:10075000019B02B0704700BF003802400120704783
:1007600008B504F0FDF8162303604FF0FF3008BD14
:1007700008B54FF0FF31FFF7F3FFFEE770B50C4609
:100780001646002506E0AFF30080214601F8010B74
:1007900001350C46B542F6DB304670BD70B50C46EF
:1007A0001646002504E014F8010BAFF30080013574
:1007B000B542F8DB304670BD08B503460D4A1268F5
:1007C0005AB10C4A106803440B4A11780B4A521A6A
:1007D000934206D8074A136008BD064A08491160CB
:1007E000EFE700BE04F0BCF80C2303604FF0FF30CD
:1007F000F2E700BF380100200004000000000320E1
:10080000600A01204FF0FF3070474FF400534B60F7
:1008100000207047012070470020704708B5044A47
:100820000021044803F00AFA034B186008BD00BF1A
:10083000D0EE0008254300083C01002010B582B02E
:10084000002401940D4B1A6B42F480021A631B6B57
:1008500003F480030193019B224605213A2001F015
:1008600029F83A2001F05EF822460521462001F0E1
:1008700021F8462001F056F802B010BD00380240C1
:1008800008B50A480A4B03604FF4E1334360002384
:100890008360C36003610C2242618361C36101F024
:1008A0000BFB00B908BDFFF7E3FEFBE73C3100207E
:1008B0000010014030B589B00023039304930593E1
:1008C00006930793026803F1804303F588339A4245
:1008D00001D009B030BD04460025019503F59433DD
:1008E0005A6C42F010025A645A6C02F010020192E3
:1008F000019A02951A6B42F001021A631B6B03F016
:1009000001030293029B4FF4C063039302230493F9
:10091000032306930723079303A9234800F016FC3B
:100920002248234B03604FF0006343608560C5603D
:100930004FF480630361456185614FF48073C36147
:100940004FF440330362456200F07EFD28BB174B35
:10095000A3639C631748184B03604FF00063436028
:10096000402383600023C3604FF4806202614361CF
:100970008361C3614FF440320262436200F064FD60
:1009800070B90C4B63639C6300220521252000F0A5
:1009900091FF252000F0C6FF9BE7FFF769FED6E731
:1009A000FFF766FEEDE700BF000002407C3000204C
:1009B00040640240DC300020B8640240FEE7FEE7FD
:1009C000FEE7FEE7FEE7704708B5024801F02EF8A3
:1009D00008BD00BF8031002008B5024801F010FCBE
:1009E00008BD00BF3C31002008B5024800F024FEDD
:1009F00008BD00BF7C30002008B5024800F01CFE96
:100A000008BD00BFDC30002000B583B0002200929A
:100A10000D4B596C41F480415964596C01F480418B
:100A2000009100990192196C41F0805119641B6C7E
:100A300003F080530193019B0F216FF0010000F040
:100A400039FF03B05DF804FB0038024010B588B0F0
:100A500001460022192000F02DFF192000F062FF4E
:100A600000240194144B5A6C42F001025A645B6CEE
:100A700003F001030193019B02A903A800F048FBC6
:100A800000F036FB43000D48A0FB03239B0C013B09
:100A90000B480C4A026040F2E732C26043600461D6
:100AA000846001F0E5F810B1012008B010BD0448E1
:100AB00000F074FFF9E700BF0038024083DE1B43FB
:100AC0008031002000000140002800F0E08170B576
:100AD00082B00446036813F0010F3BD09F4B9B6824
:100AE00003F00C03042B2CD09C4B9B6803F00C03ED
:100AF000082B21D06368B3F5803F4FD0B3F5A02F0A
:100B000052D0964B1A6822F480321A601A6822F486
:100B100080221A606368002B50D000F037FF054632
:100B20008E4B1B6813F4003F14D100F02FFF401BC5
:100B30006428F5D90320B1E1884B5B6813F4800F7A
:100B4000D8D0864B1B6813F4003F03D06368002B9A
:100B500000F09F81236813F0020F54D07F4B9B68F5
:100B600013F00C0F3ED07D4B9B6803F00C03082B59
:100B700033D0E368002B68D0794B01221A6000F073
:100B800005FF0546754B1B6813F0020F54D100F0AA
:100B9000FDFE401B0228F5D903207FE16F4A136850
:100BA00043F480331360B5E76C4B1A6842F480223B
:100BB0001A601A6842F480321A60ABE700F0E6FE71
:100BC0000546664B1B6813F4003FC3D000F0DEFE01
:100BD000401B6428F5D9032060E1604B5B6813F487
:100BE000800FC6D15D4B1B6813F0020F03D0E36882
:100BF000012B40F05081594A136823F0F803216912
:100C000043EAC1031360236813F0080F42D06369FD
:100C10006BB3534B0122C3F8802E00F0B7FE05469C
:100C20004E4B5B6F13F0020F34D100F0AFFE401B50
:100C30000228F5D9032031E1484A136823F0F8036C
:100C4000216943EAC1031360DDE7454B00221A60C6
:100C500000F09CFE0546414B1B6813F0020FD2D0FA
:100C600000F094FE401B0228F5D9032016E13C4B0E
:100C70000022C3F8802E00F089FE0546374B5B6FDB
:100C800013F0020F06D000F081FE401B0228F5D9B8
:100C9000032003E1236813F0040F77D02F4B1B6C64
:100CA00013F0805F33D1002301932C4B1A6C42F078
:100CB00080521A641B6C03F080530193019B012541
:100CC000284B1B6813F4807F23D0A368012B34D0FA
:100CD000052B38D0214B1A6F22F001021A671A6FC8
:100CE00022F004021A67A368002B3DD000F04EFEEC
:100CF00006461A4B1B6F13F0020F46D100F046FE5A
:100D0000801B41F288339842F3D90320C6E00025C6
:100D1000D6E7144A136843F48073136000F036FE7C
:100D20000646104B1B6813F4807FCED100F02EFED8
:100D3000801B0228F5D90320B0E0084A136F43F066
:100D400001031367CFE7054B1A6F42F004021A67DD
:100D50001A6F42F001021A67C5E700BF003802406F
:100D6000000047420070004000F010FE0646524B63
:100D70001B6F13F0020F08D000F008FE801B41F239
:100D800088339842F3D9032088E0EDB9A369002B9A
:100D900000F08380484A926802F00C02082A51D081
:100DA000022B17D0454B00221A6600F0EFFD0446D7
:100DB000414B1B6813F0007F42D000F0E7FD001BA1
:100DC0000228F5D9032069E03B4A136C23F08053D5
:100DD0001364DBE7394B00221A6600F0D7FD0546A5
:100DE000354B1B6813F0007F06D000F0CFFD401B91
:100DF0000228F5D9032051E0E369226A1343626AAD
:100E000043EA8213A26A5208013A43EA0243E26AC1
:100E100043EA0263284A5360284B01221A6600F015
:100E2000B5FD0446244B1B6813F0007F06D100F08B
:100E3000ADFD001B0228F5D903202FE000202DE096
:100E400000202BE0012B2BD01B4B5B6803F48001AF
:100E5000E269914226D103F03F02216A8A4223D1FE
:100E6000616A47F6C0721A40B2EB811F1ED103F4CB
:100E70004031A26A5208013AB1EB024F18D103F097
:100E80007063E26AB3EB026F14D1002006E0012028
:100E90007047012002E0012000E0002002B070BD98
:100EA0000120FBE70120F9E70120F7E70120F5E742
:100EB0000120F3E70120F1E700380240000047423B
:100EC00008B5254B9B6803F00C03042B3FD0082B7F
:100ED0003FD1214B5A6802F03F025B6813F4800F48
:100EE00012D01D4B5968C1F388111C480023A1FB87
:100EF0000001FFF725FA184B5B68C3F30143013388
:100F00005B00B0FBF3F025E0134B5968C1F3881C7C
:100F10004FEA4C11B1EB0C006EEB0E0E4FEA8E1344
:100F200043EA90638101091A63EB0E03DB0043EA95
:100F30005173C90011EB0C0C43F10003990200231B
:100F40004FEA8C2041EA9C51FFF7FAF9D3E70348B6
:100F500000E0034808BD00BF0038024040787D0132
:100F60000024F400002800F09B8070B50D46044674
:100F70004F4B1B6803F00F038B4208D2CBB24C4A95
:100F80001370136803F00F038B4240F08B802368CB
:100F900013F0020F17D013F0040F04D0454A9368E2
:100FA00043F4E0539360236813F0080F04D0414AE0
:100FB000936843F4604393603E4A936823F0F003E0
:100FC000A1680B439360236813F0010F32D063686C
:100FD000012B21D09A1E012A25D9364A126812F017
:100FE000020F61D033498A6822F0030213438B60F9
:100FF00000F0CCFC06462F4B9B6803F00C036268A4
:10100000B3EB820F16D000F0C1FC801B41F2883395
:101010009842F0D9032042E0264A126812F4003FB9
:10102000E0D101203BE0234A126812F0007FD9D1C1
:10103000012034E01E4B1B6803F00F03AB4207D9BD
:10104000EAB21B4B1A701B6803F00F03AB422DD1A1
:10105000236813F0040F06D0164A936823F4E05374
:10106000E1680B439360236813F0080F07D0114A1F
:10107000936823F46043216943EAC1039360FFF757
:101080001FFF0C4B9B68C3F303130B4AD35CD84080
:101090000A4B18600A4B1868FFF7D8FC002070BD97
:1010A000012070470120FAE70120F8E70120F6E768
:1010B000003C024000380240FCEE00080C0000201A
:1010C00008000020014B1868704700BF0C0000208A
:1010D00008B5FFF7F7FF044B9B68C3F38223034A6D
:1010E000D35CD84008BD00BF003802400CEF0008B8
:1010F00008B5FFF7E7FF044B9B68C3F34233034A8D
:10110000D35CD84008BD00BF003802400CEF000897
:101110000F2303600B4B9A6802F0030242609A6847
:1011200002F0F00282609A6802F4E052C2609B68AA
:10113000DB0803F4E0530361034B1B6803F00F0368
:101140000B60704700380240003C024000230F2B28
:1011500000F2F18070B582B061E085685E00032422
:10116000B44025EA0405CC68B4402C43846045684B
:1011700025EA02054C68C4F300129A402A434260F3
:101180005BE0DC08083450F8246003F007029500A7
:101190000F22AA4026EA020E0A69AA4042EA0E027B
:1011A00040F824205DE0092200E0002202FA0EF25D
:1011B0002A430234604D45F82420604A94686FEA5F
:1011C0000C0224EA0C054E6816F4801F01D04CEA8C
:1011D00004055A4CA560E46802EA04054E6816F45A
:1011E000001F01D04CEA0405544CE560646802EA33
:1011F00004054E6816F4003F01D04CEA04054F4C3C
:101200006560246822404D6815F4803F01D04CEAA7
:1012100004024A4C226001330F2B00F28A80012223
:101220009A400C6804EA020C32EA0404F3D14C68D8
:1012300004F00304013C012C8FD94A6802F0030238
:10124000032A09D0C4685D000322AA4024EA0204EC
:101250008A68AA402243C2604A6802F00302022A56
:101260008FD004684FEA430E032202FA0EF224EAFA
:1012700002044A6802F0030202FA0EF222430260FC
:101280004A6812F4403FC6D0002201922C4A546CA6
:1012900044F480445464526C02F480420192019AF6
:1012A0009C08A51C244A52F8255003F003024FEA7B
:1012B000820E0F2202FA0EF225EA0205214A90421E
:1012C0003FF473AF02F58062904222D002F5806253
:1012D000904220D002F5806290421ED002F58062DA
:1012E00090421CD002F5806290421AD002F58062D2
:1012F000904218D002F58062904216D002F58062CA
:10130000904214D002F5806290423FF44CAF0A2222
:101310004CE701224AE7022248E7032246E704227B
:1013200044E7052242E7062240E707223EE708227B
:101330003CE702B070BD704700380140003C0140FE
:10134000003802400000024030B405682C6824F4E4
:1013500080242C60046863608368402B05D0036898
:1013600099600368DA6030BC704703689A6003686C
:10137000D960F8E710B40368D9B210390C4AA2FB5F
:10138000014212090B4CA25CC2655F2909D923F402
:101390007F7323F0030304338365806D5DF8044B92
:1013A000704723F47F7323F003038365F5E700BFE1
:1013B000ABAAAAAAF4EE0008836A826992B9012B4B
:1013C0000AD0022B02D00BB100207047C36A13F081
:1013D000807F28D100207047C36AB3F1C07F24D03A
:1013E00000207047B2F5005F09D0022B25D9032BEE
:1013F00025D1C36A13F0807F23D100207047032BCF
:1014000003D8DFE803F01404140A00207047C36A0D
:1014100013F0807F0DD100207047C36AB3F1C07F05
:1014200009D000207047012070470120704701203B
:10143000704701207047012070470120704700204D
:10144000704701207047000070B5044600F09EFA16
:10145000002C5BD00546022384F83530002384F845
:1014600034302268136823F00103136023681A687C
:1014700012F0010F0AD000F089FA431B052BF5D9B1
:1014800020236365032084F8350070BD1A68204866
:1014900010406168A2680A43E1680A4321690A436F
:1014A00061690A43A1690A43E1690A43216A0A435F
:1014B0000243616A04291ED01A602668756925F006
:1014C0000705636A1D43042B07D1A36A1D43E36A22
:1014D0001BB12046FFF770FF90B975612046FFF7FA
:1014E00049FFE26D3F239340836000206065012344
:1014F00084F83530C9E7E16A206B01430A43DBE732
:1015000040236365012084F83500BEE70120BCE775
:101510003F8010F038B50446856D90F834000128FE
:101520002BD0012084F8340094F83500C0B2012893
:1015300004D0002384F83430022038BD022084F81F
:101540003500002060652046FFF7FEFEE26D3F2378
:101550009340AB602268136843F016031360236C5A
:1015600023B12268136843F00803136022681368EC
:1015700043F0010313600020DFE70220DDE770B5D0
:101580000446866D00F002FA94F83530DBB2022B87
:1015900006D080236365002384F83430012070BDB9
:1015A00005462268136823F0160313602268536906
:1015B00023F080035361236CE3B12268136823F0A6
:1015C000080313602268136823F001031360236883
:1015D0001B6813F0010F11D000F0D8F9431B052B45
:1015E000F5D920236365032084F83500002384F8AF
:1015F0003430D4E7A36C002BDFD1E3E7E26D3F2367
:101600009340B360012384F83530002084F834001F
:10161000C5E790F83530DBB2022B03D08023436559
:1016200001207047052380F835300268136823F0E5
:101630000103136000207047F0B583B00446002317
:101640000193724B1D68724BA3FB0535AD0A876D84
:101650003E68C26D08239340334210D003681A6875
:1016600012F0040F0BD01A6822F004021A60C26D47
:1016700008239340BB60436D43F001034365E26D73
:1016800001239340334209D02268526912F0800F3F
:1016900004D0BB60636D43F002036365E26D042315
:1016A0009340334209D02268126812F0020F04D02E
:1016B000BB60636D43F004036365E26D10239340E8
:1016C000334224D02268126812F0080F1FD0BB608A
:1016D00023681A6812F4802F0DD01B6813F4002FB2
:1016E00004D1236C9BB12046984710E0A36C73B1E2
:1016F000204698470BE01A6812F4807F03D11A68DD
:1017000022F008021A60236C0BB120469847E26D64
:1017100020239340334255D02268126812F0100FF4
:1017200050D0BB6094F83530DBB2052B0ED0236867
:101730001A6812F4802F33D01B6813F4002F2AD1BB
:10174000636C002B3ED0204698473BE0226813682C
:1017500023F0160313602268536923F0800353615A
:10176000236CA3B12268136823F008031360E26DB1
:101770003F239340BB60012384F83530002384F875
:101780003430236D002B3FD0204698473CE0A36CBB
:10179000002BE7D1EBE7E36BA3B12046984711E0BC
:1017A0001A6812F4807F09D11A6822F010021A60B8
:1017B000012384F83530002384F83430E36B0BB117
:1017C00020469847636DFBB1636D13F0010F17D08E
:1017D000052384F835302268136823F00103136071
:1017E000019B01330193AB4204D823681B6813F0BB
:1017F000010FF5D1012384F83530002384F834300B
:10180000E36C0BB12046984703B0F0BD0C000020FC
:10181000B5814E1B10B582B000230193194B1A6C91
:1018200042F080521A641B6C03F080530193019BB9
:10183000154B01221A6400F0A9F80446134B5B68AB
:1018400013F4803F08D100F0A1F8001BB0F57A7FB7
:10185000F4D9032002B010BD0B4B01225A6400F0F2
:1018600095F80446094B5B6813F4003F07D100F07C
:101870008DF8001BB0F57A7FF4D90320EAE7002049
:10188000E8E700BF0038024000000E420070004050
:10189000074AD36823F4E0631B041B0C000200F426
:1018A000E060034343F0BF6343F40033D360704709
:1018B00000ED00E000B5194BDB68C3F30223C3F170
:1018C000070CBCF1040F28BF4FF0040C03F1040E09
:1018D000BEF1060F18D9033B4FF0FF3E0EFA0CFC89
:1018E00021EA0C0199400EFA03F322EA030319439B
:1018F00000280BDB0901C9B200F1604000F561402E
:1019000080F800135DF804FB0023E5E700F00F000A
:101910000901C9B2024B1954F4E700BF00ED00E021
:1019200014ED00E0002807DB00F01F02400901234E
:101930009340024A42F82030704700BF00E100E0C7
:1019400008B50B4B1A6842F400721A601A6842F428
:1019500080621A601A6842F480721A600320FFF7EE
:1019600097FF0F20FFF772F8FFF74EF8002008BD31
:10197000003C0240034A1168034B1B780B44136080
:10198000704700BFC831002004000020014B1868D8
:10199000704700BFC83100207047000090F83D300C
:1019A000DBB2012B37D1022380F83D300268D368C7
:1019B00043F00103D3600368194A934220D0B3F186
:1019C000804F1DD0A2F57C42934219D002F580626F
:1019D000934215D002F58062934211D002F578420D
:1019E00093420DD002F57052934209D0A2F5943281
:1019F000934205D01A6842F001021A600020704735
:101A00009A6802F00702062A07D01A6842F001021B
:101A10001A6000207047012070470020704700BF07
:101A200000000140704770477047704710B504468A
:101A300003681A6912F0020F11D0DA6812F0020F6F
:101A40000DD06FF002021A610123037703689B69CE
:101A500013F0030F70D0FFF7E6FF0023237723680E
:101A60001A6912F0040F12D0DA6812F0040F0ED0C7
:101A70006FF004021A610223237723689B6913F431
:101A8000407F5FD02046FFF7CEFF002323772368F7
:101A90001A6912F0080F12D0DA6812F0080F0ED08F
:101AA0006FF008021A61042323772368DB6913F0BF
:101AB000030F4ED02046FFF7B6FF0023237723689D
:101AC0001A6912F0100F12D0DA6812F0100F0ED04F
:101AD0006FF010021A61082323772368DB6913F47F
:101AE000407F3DD02046FFF79EFF002323772368E9
:101AF0001A6912F0010F03D0DA6812F0010F36D123
:101B000023681A6912F0800F03D0DA6812F0800F90
:101B100034D123681A6912F0400F03D0DA6812F04A
:101B2000400F32D123681A6912F0200F03D0DA680F
:101B300012F0200F30D110BDFFF774FF2046FFF7E1
:101B400073FF8AE72046FFF76DFF2046FFF76CFF23
:101B50009BE72046FFF766FF2046FFF765FFACE7EF
:101B60002046FFF75FFF2046FFF75EFFBDE76FF0FF
:101B700001021A612046FEF76FFDC1E76FF0800297
:101B80001A61204600F0A1F8C3E76FF040021A6125
:101B90002046FFF74AFFC5E76FF020021A61204692
:101BA00000F092F8C7E700000368304A904212D074
:101BB000B0F1804F0FD0A2F57C4290420BD002F5DD
:101BC0008062904207D002F58062904203D002F515
:101BD0007842904203D123F070034A681343234AAA
:101BE00090422AD0B0F1804F27D0A2F57C4290429B
:101BF00023D002F5806290421FD002F580629042AD
:101C00001BD002F57842904217D002F570529042F4
:101C100013D002F5806290420FD002F580629042AC
:101C20000BD0A2F59832904207D002F58062904224
:101C300003D002F58062904203D123F44073CA6856
:101C4000134323F080034A69134303608B68C36224
:101C50000B688362054B984203D003F5806398427A
:101C600001D10B6903630123436170470000014008
:101C700040B310B5044690F83D30F3B1022384F828
:101C80003D30214651F8040BFFF78EFF012384F805
:101C9000463084F83E3084F83F3084F8403084F891
:101CA000413084F8423084F8433084F8443084F87A
:101CB000453084F83D30002010BD80F83C30FFF7FF
:101CC0006BFEDBE70120704770477047026802F146
:101CD0000C0353E8003F23F0C0030C3242E800310C
:101CE0000029F3D1202380F83D307047026802F1CB
:101CF0000C0353E8003F23F490730C3242E80031A8
:101D00000029F3D1026802F1140353E8003F23F0E5
:101D10000103143242E800310029F3D1036B012B97
:101D200005D0202380F83E3000230363704702680B
:101D300002F10C0353E8003F23F010030C3242E899
:101D400000310029F3D1ECE790F83D30DBB2212BD4
:101D500001D0022070478368B3F5805F17D0036A13
:101D60005A1C02621A7803685A60C38C9BB2013B0A
:101D70009BB2C3844BB90268D36823F08003D3605D
:101D80000268D36843F04003D360002070470369C2
:101D9000002BE4D1036A1B880268C3F30803536075
:101DA000036A02330362E0E738B504460268136948
:101DB00023F44053C1680B431361836802691343E2
:101DC00042691343C2691A430168CB6823F416437E
:101DD00023F00C031343CB600268536923F4407370
:101DE00081690B4353610368314A934206D002F57F
:101DF0008062934202D0FFF76BF901E0FFF778F9B8
:101E0000E369B3F5004F29D00021031849411B189D
:101E100041F10001C90041EA5371DB001818636801
:101E20004FEA83024FEA937341F10001FEF788FA0B
:101E3000204DA5FB00325109642303FB11031B0154
:101E40003233A5FB03235B0903F0F00202EB01121E
:101E500003F00F03216813448B6038BD0023021880
:101E600043EB0301121841F10001C90041EA52712C
:101E7000D200101841F10001626892185B41FEF730
:101E80005FFA0C4DA5FB00325109642303FB1103DB
:101E9000DB003233A5FB03235B095A0002F4F8721E
:101EA00002EB011203F00703216813448B60D4E7AF
:101EB000001001401F85EB5158B310B5044690F84F
:101EC0003D300BB3242384F83D302268D36823F4DB
:101ED0000053D3602046FFF767FF2268136923F49D
:101EE000904313612268536923F02A0353612268E7
:101EF000D36843F40053D36000202064202384F887
:101F00003D3084F83E3010BD80F83C30FEF7D2FC06
:101F1000D8E701207047000038B590F83D30DBB2BB
:101F2000202B38D10446002937D0002A37D090F82A
:101F30003C30012B35D0012380F83C300162828493
:101F4000C28400250564212380F83D30436B164888
:101F5000D863636B15481864636B1548D864636B6A
:101F60001D6520681346021D606BFFF7D3FA2368D6
:101F70006FF040021A6084F83C50226802F11403AA
:101F800053E8003F43F08003143242E80031002957
:101F9000F3D1002000E0022038BD0120FCE7012041
:101FA000FAE70220F8E700BF3B200008A320000862
:101FB000B320000810B5044603685A6990F83D3014
:101FC000DBB2212B0AD023685A6902F0400294F850
:101FD0003E30DBB2222B19D0002010BD02F080026F
:101FE000002AF0D0226802F1140353E8003F23F0E6
:101FF0008003143242E800310029F3D1606B08B14C
:10200000FFF7BDFA2046FFF761FEDCE7002AE3D0C8
:10201000226802F1140353E8003F23F04003143216
:1020200042E800310029F3D1A06B08B1FFF7A7FA0D
:102030002046FFF75BFECFE7704708B50346806B8D
:102040001B681B6813F4807F1AD10023C3840268C5
:1020500002F1140353E8003F23F08003143242E8F6
:1020600000310029F3D1026802F10C0353E8003F6C
:1020700043F040030C3242E800310029F3D108BD9F
:10208000FFF7DAFFFBE708B50168CA6822F04002F3
:10209000CA60202280F83D20FFF7CEFF002008BD57
:1020A000704708B5806BFFF7FBFF08BD70477047AE
:1020B000704710B5846B23685A6994F83D30DBB2E1
:1020C000212B10D023685A6902F0400294F83E3068
:1020D000DBB2222B11D0236C43F010032364204683
:1020E000FFF7E6FF10BD02F08002002AEAD00023CD
:1020F000E3842046FFF7EAFDE4E7002AEBD0002363
:10210000E3852046FFF7F2FDE5E708B5806B002385
:10211000C385C384FFF7CCFF08BD704790F83E30FD
:10212000DBB2222B67D18368B3F5805F4DD0826A22
:10213000B3F5805F04D0002B54D10369002B51D13B
:1021400003685B681370836A01338362C38D9BB23B
:10215000013B9BB2C385002B4FD100B583B0026811
:10216000D36823F02003D3600268D36823F480731C
:10217000D3600268536923F001035361202380F880
:102180003E30036B012B33D100230363026802F15D
:102190000C0353E8003F23F010030C3242E80031F7
:1021A0000029F3D103681A6812F0100F06D000223C
:1021B00001921A6801925B680193019B818DFFF780
:1021C000ACFF002003B05DF804FB0269002AAED129
:1021D000826A03685B68C3F308031380836A02336F
:1021E0008362B3E703685B6803F07F031370AAE7B9
:1021F000FFF75CFFE5E70220704700207047000012
:1022000030B583B0044602681368D068516913F092
:102210000F0505D113F0200F02D010F0200F19D1B7
:102220002DB111F0010119D110F4907F16D1216B5D
:1022300001297DD013F0800F03D010F0800F40F003
:10224000158113F0400F03D010F0400F40F01281C1
:1022500003B030BD2046FFF761FFF9E713F0010F2F
:1022600006D010F4807F03D0226C42F00102226479
:1022700013F0040F04D019B1226C42F00202226460
:1022800013F0020F04D019B1226C42F00402226450
:1022900013F0080F07D010F0200F00D119B1226CF5
:1022A00042F008022264226C002AD1D013F0200FE1
:1022B00002D010F0200F29D123685B6903F040039E
:1022C000226C12F0080F00D163B32046FFF70EFD19
:1022D00023685B6913F0400F20D0226802F11403D9
:1022E00053E8003F23F04003143242E80031002954
:1022F000F3D1A36B73B1614A1A65A06BFFF789F93B
:102300000028A5D0A06B036D9847A1E72046FFF7F2
:1023100005FFD1E72046FFF7CBFE99E72046FFF700
:10232000C7FE95E72046FFF7C3FE002323648FE72F
:1023300013F0100F3FF47EAF10F0100F3FF47AAFA0
:10234000002301931368019353680193019B536920
:1023500013F0400F50D0A26B13685B689BB2002B48
:102360003FF476AFA18D99427FF672AFE385D369D2
:10237000B3F5807F37D0226802F10C0353E8003FA9
:1023800023F480730C3242E800310029F3D1226833
:1023900002F1140353E8003F23F00103143242E832
:1023A00000310029F3D1226802F1140353E8003F01
:1023B00023F04003143242E800310029F3D12023F6
:1023C00084F83E3000232363226802F10C0353E8B3
:1023D000003F23F010030C3242E800310029F3D112
:1023E000A06BFFF7CCF8A18DE38D9BB2C91A89B21F
:1023F0002046FFF792FE2BE7A18DE38D9BB2C91A11
:1024000089B2E38D9BB2002B3FF422AF00293FF449
:102410001FAF226802F10C0353E8003F23F49073CE
:102420000C3242E800300028F3D1226802F1140394
:1024300053E8003F23F00103143242E80030002843
:10244000F3D1202384F83E3000232363226802F175
:102450000C0353E8003F23F010030C3242E8003035
:102460000028F3D12046FFF758FEF1E62046FFF79B
:102470006BFCEDE62046FFF706FEE9E60B210008BF
:1024800008B5806B036B012B02D0FFF710FE08BD6F
:10249000818D4908FFF741FEF9E708B50346806BD7
:1024A0001B681B6813F4807F2BD10023C38502684F
:1024B00002F10C0353E8003F23F480730C3242E82E
:1024C00000310029F3D1026802F1140353E8003F00
:1024D00023F00103143242E800310029F3D10268ED
:1024E00002F1140353E8003F23F04003143242E8A2
:1024F00000310029F3D1202380F83E30036B012BFB
:1025000005D0036B012B0FD0FFF7D0FD08BD02688B
:1025100002F10C0353E8003F23F010030C3242E8B1
:1025200000310029F3D1ECE7818DFFF7F6FDEDE7EF
:1025300030B583B004461346816282850025056468
:10254000222280F83E20826B2048D063A26B204874
:102550001064A26B1F48D064A26B156520680A4600
:10256000011DA06BFEF7D6FF019523681A68019242
:102570005B680193019B84F83C5023695BB122683E
:1025800002F10C0353E8003F43F480730C3242E83D
:1025900000310029F3D1226802F1140353E8003F0F
:1025A00043F00103143242E800310029F3D12268DC
:1025B00002F1140353E8003F43F04003143242E8B1
:1025C00000310029F3D1002003B030BD9B24000866
:1025D00081240008B320000808B590F83E30DBB233
:1025E000202B0DD171B17AB190F83C30012B0DD078
:1025F000012380F83C3000230363FFF799FF00E0DC
:10260000022008BD0120FCE70120FAE70220F8E7DC
:10261000034AD2F8883043F47003C2F88830704718
:1026200000ED00E000F1080343604FF0FF328260EC
:10263000C360036100230360704700230361704798
:1026400043684B609A688A605160996008610368CA
:1026500001330360704730B40D68B5F1FF3F11D00E
:1026600000F108031C465B681A68AA42FAD963683D
:102670004B6099608C60616008610368013303609E
:1026800030BC70470469F2E70369416882688A6078
:10269000416851605A68824206D0002202611A687D
:1026A000013A1A601868704782685A60F5E710B5F9
:1026B000044601F0CFFCA26BE36B9A4204D00024E5
:1026C00001F0EAFC204610BD0124F9E710B50446EC
:1026D00001F0C0FCA36B23B9012401F0DDFC20460E
:1026E00010BD0024F9E770B504461546866B026CF0
:1026F0005AB903681BB100200136A66370BD80681B
:1027000000F0F0FF0023A360F6E76DB9406802F027
:1027100075F9226C636813446360A268934219D30D
:10272000236863602846E7E7C06802F067F9226C17
:102730005142E3689B1AE3602268934202D2A36885
:102740000B44E360022D01D00020D5E726B1013E05
:102750000020D1E72846CFE70020CDE70346026CF2
:102760006AB110B50846D9681144D9609C68A14285
:1027700001D31968D960D96802F040F910BD7047DB
:1027800038B5054601F066FC95F8454064B201E0B5
:10279000013C64B2002C0ADD6B6A43B105F12400F0
:1027A00000F0DAFE0028F3D000F086FFF0E7FF2308
:1027B00085F8453001F070FC01F04CFC95F8444080
:1027C00064B201E0013C64B2002C0ADD2B6943B124
:1027D00005F1100000F0C0FE0028F3D000F06CFFFF
:1027E000F0E7FF2385F8443001F056FC38BD38B5DA
:1027F000E0B10D46044601F02DFC2368E26B216C2C
:1028000001FB0230A0600020A0636360013A02FB7C
:102810000133E360FF2384F8443084F84530FDB988
:10282000236963B901F038FC012038BD4FF0500333
:1028300083F31188BFF36F8FBFF34F8FFEE704F16F
:10284000100000F089FE0028ECD04FF0E0234FF09C
:102850008052C3F8042DBFF34F8FBFF36F8FE1E7B2
:1028600004F11000FFF7DEFE04F12400FFF7DAFEAA
:10287000D8E738B51D46049C0B4649B92460E0638F
:10288000236401212046FFF7B2FF84F84C5038BD85
:102890002260F4E740B94FF0500383F31188BFF38F
:1028A0006F8FBFF34F8FFEE710B584B01C46844690
:1028B00053B192B189B94FF0500383F31188BFF33C
:1028C0006F8FBFF34F8FFEE74FF0500383F31188F4
:1028D000BFF36F8FBFF34F8FFEE76AB150230393AF
:1028E000039B502B13D04FF0500383F31188BFF399
:1028F0006F8FBFF34F8FFEE70029EFD04FF05003EB
:1029000083F31188BFF36F8FBFF34F8FFEE7039BF5
:10291000012384F8463000949DF818306046FFF794
:10292000A8FF204604B010BDF0B585B0019288B173
:102930000F461D460446B1B1022D20D1E36B012B99
:102940001DD04FF0500383F31188BFF36F8FBFF397
:102950004F8FFEE74FF0500383F31188BFF36F8F63
:10296000BFF34F8FFEE7036C002BE5D04FF0500311
:1029700083F31188BFF36F8FBFF34F8FFEE700F033
:10298000A1FE064658B9019B002B48D04FF05003DA
:1029900083F31188BFF36F8FBFF34F8FFEE70026DD
:1029A0003DE02A4639462046FFF79DFE636A7BB923
:1029B00048B14FF0E0234FF08052C3F8042DBFF32D
:1029C0004F8FBFF36F8F01F067FB012005B0F0BDA3
:1029D00004F1240000F0C0FD0028F4D04FF0E02303
:1029E0004FF08052C3F8042DBFF34F8FBFF36F8FAA
:1029F000E9E701F051FB0020E8E702A800F00EFE35
:102A0000012619E0002384F8443021E0002384F8F3
:102A1000453023E02046FFF7B3FE00F07DFC01F0D7
:102A200019FBA26BE36B9A42BBD3022DB9D0019B79
:102A3000002BDED0002EE0D001F02EFB00F0D2FB08
:102A400001F008FB94F8442052B2B2F1FF3FD9D014
:102A500094F8452052B2B2F1FF3FD7D001F01CFBF1
:102A600001A902A800F0E6FDD8B92046FFF71FFE35
:102A70000028CFD0019904F1100000F039FD204664
:102A8000FFF77EFE00F048FC0028C8D14FF0E0239D
:102A90004FF08052C3F8042DBFF34F8FBFF36F8FF9
:102AA000BDE72046FFF76CFE00F036FC00208DE706
:102AB0002DE9F84390B10F4616461C460546B1B1C4
:102AC000022C20D1EB6B012B1DD04FF0500383F370
:102AD0001188BFF36F8FBFF34F8FFEE74FF05003A6
:102AE00083F31188BFF36F8FBFF34F8FFEE7036C43
:102AF000002BE5D04FF0500383F31188BFF36F8FA5
:102B0000BFF34F8FFEE701F0CBFBEFF311894FF0DE
:102B1000500383F31188BFF36F8FBFF34F8FAA6BFE
:102B2000EB6B9A4206D3022C04D0002089F3118863
:102B3000BDE8F88395F845804FFA88F8AB6B2246DC
:102B400039462846FFF7CFFDB8F1FF3F06D008F120
:102B500001035BB285F845300120E7E76B6A0BB9EA
:102B60000120E3E705F1240000F0F6FC18B126B1DE
:102B700001203060DAE70120D8E70120D6E7F0B580
:102B800085B0019290B10F460446C1B100F09AFDA4
:102B9000064600BB019B002B5ED04FF0500383F331
:102BA0001188BFF36F8FBFF34F8FFEE74FF05003D5
:102BB00083F31188BFF36F8FBFF34F8FFEE7036C72
:102BC000002BE3D04FF0500383F31188BFF36F8FD6
:102BD000BFF34F8FFEE700263EE039462046FFF761
:102BE000BDFD013DA563236923B901F055FA01201C
:102BF00005B0F0BD04F1100000F0AEFC0028F4D0E8
:102C00004FF0E0234FF08052C3F8042DBFF34F8FF5
:102C1000BFF36F8FE9E701F03FFA0020E8E702A871
:102C200000F0FCFC012621E0002384F8443029E078
:102C3000002384F845302BE02046FFF7A1FD00F08B
:102C40006BFB09E02046FFF79BFD00F065FB20468B
:102C5000FFF73CFD00283FD101F0FCF9A56B002DEA
:102C6000BBD1019B002BD6D0002ED8D001F014FA96
:102C700000F0B8FA01F0EEF994F844305BB2B3F129
:102C8000FF3FD1D094F845305BB2B3F1FF3FCFD0D6
:102C900001F002FA01A902A800F0CCFC0028D1D171
:102CA0002046FFF713FD0028C6D0019904F1240047
:102CB00000F01EFC2046FFF763FD00F02DFB00280E
:102CC000CAD14FF0E0234FF08052C3F8042DBFF378
:102CD0004F8FBFF36F8FBFE7002089E70023072BDB
:102CE0000CD8074A52F833200AB10133F7E7044AF7
:102CF00042F8331002EBC30358607047704700BFBF
:102D0000CC31002070B504460D46164601F0A2F9FC
:102D100094F844305BB2B3F1FF3F0DD094F84530E6
:102D20005BB2B3F1FF3F0BD001F0B6F9A36B5BB11F
:102D30002046FFF725FD70BD002384F84430EDE701
:102D4000002384F84530EFE73246294604F1240099
:102D500000F0E6FBECE70000084B1B681B6823B99A
:102D6000074B4FF0FF321A607047044B1B68DB685B
:102D7000DB685A68024B1A60704700BF10320020AF
:102D8000B83600202DE9F04780460D461746994693
:102D9000089EDDF824A00A9C9200A521206B01F07A
:102DA0003BFE236B07F18042013A03EB820727F0D9
:102DB0000707B5B34FF0000CBCF10F0F0BD815F897
:102DC0000C2004EB0C0383F8342015F80C3013B1FD
:102DD0000CF1010CF0E7002384F84330372E00D9C2
:102DE0003726E662E66400252565201DFFF725FCF1
:102DF00004F11800FFF721FC2461C6F13806A66132
:102E00006462656584F858504A464146384601F088
:102E1000F7F82060BAF1000F01D0CAF80040BDE811
:102E2000F087002384F83430D8E7000038B5002458
:102E300007E004EB840293000E481844FFF7F2FB0E
:102E40000134372CF5D90C4D2846FFF7EBFB0B4C22
:102E50002046FFF7E7FB0A48FFF7E4FB0948FFF7C6
:102E6000E1FB0948FFF7DEFB084B1D60084B1C60C7
:102E700038BD00BF183200208C360020A03600205C
:102E8000C4360020F0360020DC360020103200204E
:102E90001432002010B5044601F0DCF8224A136811
:102EA00001331360214B1B685BB1214B1B686BB96D
:102EB0001E4B1B68DA6AE36A9A4207D81B4B1C60F8
:102EC00004E01A4B1C601368012B29D0194A1368BF
:102ED000013313606364E06A174B1B68984201D9A1
:102EE000154B186000EB8000211D144B03EB800094
:102EF000FFF7A6FB01F0D0F80D4B1B687BB10B4B25
:102F00001B68DA6AE36A9A4209D24FF0E0234FF075
:102F10008052C3F8042DBFF34F8FBFF36F8F10BDE6
:102F2000FFF784FFD2E700BF783600200C32002084
:102F3000D836002084360020883600201832002041
:102F400010B5044690F8593063B1012B11D0022B13
:102F50000ED04FF0500383F31188BFF36F8FBFF390
:102F60004F8FFEE7006B00F0CFFF204600F0CCFF54
:102F700010BD00F0C9FFFBE70F4B1B68D3B110B5C4
:102F800001F068F80D4BDB68DC68201DFFF77CFB67
:102F90000B4A1368013B1360074A1368013B136037
:102FA00001F07AF82046FFF7CBFF034B1B68002B9C
:102FB000E6D110BD704700BF7C360020F0360020FF
:102FC0007836002008B5FFF7D7FF074B1B68012BA9
:102FD000F9D94FF0E0234FF08052C3F8042DBFF32E
:102FE0004F8FBFF36F8FEEE71832002070B50446A5
:102FF0000D46174B1E68174B18680430FFF744FB4B
:10300000B4F1FF3F0DD03444124B1B685C60A64204
:1030100010D9114B18680F4B19680431FFF71BFBCF
:1030200070BD002DEFD00B4B196804310B48FFF732
:1030300007FBF5E70A4B1868064B19680431FFF7E0
:103040000AFB084B1B68A342EAD9064B1C60E7E762
:10305000043700200C32002014320020DC3600201F
:1030600010320020B836002030B587B00B9C7CB100
:103070000C9DB5B15C250495049D5C2D1AD04FF0D4
:10308000500383F31188BFF36F8FBFF34F8FFEE7B9
:103090004FF0500383F31188BFF36F8FBFF34F8F4F
:1030A000FEE74FF0500383F31188BFF36F8FBFF338
:1030B0004F8FFEE7049D0C9D2C63022485F8594038
:1030C00000240394029505AC01940A9C0094FFF738
:1030D00059FE0C98FFF7DEFE059807B030BD2DE9CC
:1030E000F04385B00746884614461E46900000F01F
:1030F0008DFE00B381465C2000F088FE0546B0B12D
:10310000C0F83090E5B1002385F85930039302955B
:103110000D9B01930C9B0093334622464146384653
:10312000FFF730FE2846FFF7B5FE012005E04846D0
:1031300000F0EAFEE6E74FF0FF3005B0BDE8F083AF
:103140004FF0FF30F9E7000010B588B00024059477
:10315000069407AA06A905A800F0DCFD059B0293CA
:10316000069B019300942346079A18491848FFF7D5
:103170007BFF184B186040B100F068FB012806D0B7
:10318000B0F1FF3F18D008B010BD0020F6E74FF0B7
:10319000500383F31188BFF36F8FBFF34F8F0E4B34
:1031A0004FF0FF321A600D4B01221A600C4B0022C7
:1031B0001A6000F0E9FFE6E74FF0500383F311884F
:1031C000BFF36F8FBFF34F8FFEE700BF14EF000810
:1031D000C52F0008B4360020B8360020D8360020AD
:1031E00004370020024A136801331360704700BFA0
:1031F00080360020014B1868704700BF043700205C
:10320000F8B53A4B1B68002B69D1394B1D68013565
:103210001D60C5B9374B1B681B6843B14FF05003A5
:1032200083F31188BFF36F8FBFF34F8FFEE7314AEF
:103230001168314B186810601960304A1368013307
:103240001360FFF789FD2E4B1B68AB423DD9002769
:103250002C4B1B68DB6A03EB83039A002A4B9B58B9
:10326000012B00D90127294B1B68002B3CD00127DB
:103270003AE001271F4B1B681B6843B31D4B1B68BB
:10328000DB68DC6863689D4226D3261D3046FFF765
:10329000FBF9A36A1BB104F11800FFF7F5F9E36A23
:1032A0001B4A1268934201D9194A136003EB830346
:1032B0009A00314614481044FFF7C2F9E26A114BF4
:1032C0001B68DB6A9A42D4D2D4E70027D2E70C4BC2
:1032D0004FF0FF321A60BBE7094A1360B8E70D4AA6
:1032E00013680133136000273846F8BD803600208C
:1032F000043700201032002014320020BC36002099
:10330000B83600200C320020183200200837002088
:1033100088360020C036002038B5354B1B6843B9CD
:103320004FF0500383F31188BFF36F8FBFF34F8FBC
:10333000FEE700F08FFE2E4B1A68013A1A601B68F8
:10334000002B4FD12B4B1B680BB900244BE0002402
:10335000294B1B681BB3284BDB68DC6804F11800A1
:10336000FFF792F9251D2846FFF78EF9E06A234BF7
:103370001B68984201D9214B186000EB8000294658
:103380001F4B03EB8000FFF75BF9E26A1D4B1B68E4
:10339000DB6A9A42DCD31C4B01221A60D8E70CB1DD
:1033A000FFF7DAFC194B1C6884B9174B1C68D4B1C1
:1033B0004FF0E0234FF08052C3F8042DBFF34F8F3E
:1033C000BFF36F8F01240EE0013C07D0FFF718FF19
:1033D0000028F9D00C4B01221A60F5E70B4B0022B4
:1033E0001A60E2E7002400F057FE204638BD00BF17
:1033F0008036002078360020C43600208836002031
:10340000183200200C32002008370020C03600207F
:1034100010B5A8B10446104B1B6843B14FF05003E0
:1034200083F31188BFF36F8FBFF34F8FFEE7FFF772
:10343000D9FE00212046FFF7D9FDFFF76DFF48B9FF
:103440004FF0E0234FF08052C3F8042DBFF34F8FAD
:10345000BFF36F8F10BD00BF803600201F4B1B686D
:103460001BB11F4B01221A6070471D4B00221A60CE
:103470001C4B1B6803EB83018A001B498A585AB90D
:103480000BB1013BF6E74FF0500383F31188BFF314
:103490006F8FBFF34F8FFEE703EB830082000A4478
:1034A00050684068506003EB830C4FEA8C0208328E
:1034B000114488420BD003EB830291000A4A0A446C
:1034C0005268D168094A1160064A13607047406823
:1034D00062469100044A0A445060ECE780360020BE
:1034E0000837002088360020183200200C320020D7
:1034F00058B110B50C46094A11681831FFF7ABF8FE
:1035000001212046FFF772FD10BD4FF0500383F3F9
:103510001188BFF36F8FBFF34F8FFEE70C3200208F
:1035200038B570B10D4614460A4A11681831FFF7D4
:1035300087F80CB14FF0FF3521462846FFF756FDBE
:1035400038BD4FF0500383F31188BFF36F8FBFF383
:103550004F8FFEE70C32002038B5C368DC6824B317
:1035600004F118052846FFF78FF8184B1B682BBB92
:10357000251D2846FFF788F8E06A154B1B6898421E
:1035800001D9134B186000EB80002946114B03EB67
:103590008000FFF755F8E26A0F4B1B68DB6A9A421E
:1035A00011D901200D4B186038BD4FF0500383F343
:1035B0001188BFF36F8FBFF34F8FFEE7294608488E
:1035C000FFF73EF8E7E70020EEE700BF8036002077
:1035D00088360020183200200C32002008370020E6
:1035E000C436002060B110B5044600F033FD094B2D
:1035F0001B682360084B1B68636000F04DFD10BD25
:103600004FF0500383F31188BFF36F8FBFF34F8FD9
:10361000FEE700BFBC36002004370020034B1B68C8
:103620000360034B1B684360704700BFBC3600203B
:1036300004370020F8B5C8B10C460546F9B100F0D2
:1036400009FD1B4B19686B68C81A2268B2F1FF3F6D
:1036500026D0184E36682F68B74201D08B4224D945
:10366000824215D80023236001241AE04FF0500352
:1036700083F31188BFF36F8FBFF34F8FFEE74FF0D7
:10368000500383F31188BFF36F8FBFF34F8FFEE7B3
:103690005B1A134423602846FFF7C0FF002400E0B4
:1036A000002400F0F9FC2046F8BD0124F9E700BF32
:1036B00004370020BC360020014B01221A607047FD
:1036C00008370020054B1B6833B1054B1B680BB155
:1036D000002070470220704701207047D836002034
:1036E0008036002000283BD038B504461E4B1B68AE
:1036F000834208D04FF0500383F31188BFF36F8FDC
:10370000BFF34F8FFEE7036D43B94FF0500383F3D0
:103710001188BFF36F8FBFF34F8FFEE7013B036547
:10372000C16AC26C91421DD00BB1002038BD051D8D
:103730002846FEF7A9FFE06CE062C0F13803A36100
:103740000A4B1B68984201D9084B186000EB8000B7
:103750002946074B03EB8000FEF772FF0120E5E7E7
:10376000002070470020E1E70C320020883600205E
:1037700018320020064B1A6813682BB90123036026
:1037800023B9D368186870470023F8E70020704712
:103790000C37002008B54160006191420CD8D21A64
:1037A00083699A4201D3012008BD011D094B1868A5
:1037B000FEF751FF0020F7E79A4201D2994206D264
:1037C000011D054B1868FEF746FF0020ECE70120BD
:1037D000EAE700BF103700200C37002030B583B077
:1037E00000F038FC114B1B681BB100F055FC03B016
:1037F00030BD0F4D2846FEF715FF0E4C2046FEF754
:1038000011FF0D4B1D600D4B1C60002300930C4BF2
:103810000C4A10210A20FFF73DF8044B18600028DD
:10382000E3D00949FFF75AFADFE700BF303800203C
:10383000B4370020C83700200C3700201037002094
:10384000E0370020143700201CEF000810B588B0C6
:10385000FFF7C4FF124B1B68CBB1002405940694FC
:1038600007AA06A905A800F061FA059B0293069B2A
:103870000193022300932346079A0A490A48FFF757
:10388000F3FB0A4B186010B1012008B010BD4FF0D7
:10389000500383F31188BFF36F8FBFF34F8FFEE7A1
:1038A0003038002024EF0008B13B000834380020F5
:1038B000B8B19C4603461848006858B300B585B0B7
:1038C00000910192029305291CDCFFF7FBFE022800
:1038D00010D000231A4669460F480068FFF724F805
:1038E00015E04FF0500383F31188BFF36F8FBFF3E0
:1038F0004F8FFEE70023069A694607480068FFF7E6
:1039000013F804E0002362466946FFF7D1F805B0DA
:103910005DF804FB002070473038002070B582B09D
:103920001B4B1B681A6862B3DB681E68DC68251DC8
:103930002846FEF7A9FE236A2046984794F82830C7
:1039400013F0040FECD0A36933449E4207D26360A6
:10395000246129460E4B1868FEF77DFEE0E7002142
:1039600000910B4632462046FFF7A2FF0028D7D130
:103970004FF0500383F31188BFF36F8FBFF34F8F66
:10398000FEE7044A106802490860136002B070BD87
:103990000C3700201037002038B50546FFF72AFC09
:1039A0000446074B1B68834205D800232B60044B59
:1039B0001C60204638BDFFF7B1FF01232B60F6E7FE
:1039C000DC37002070B582B006460D4617490968FD
:1039D000C968CC68201DFEF757FE94F828C01CF07B
:1039E000040F08D12CF0010C84F828C0236A20466B
:1039F000984702B070BDA16933462A46314420463B
:103A0000FFF7C8FE0028F1D0002100910B46324696
:103A10002046FFF74DFF0028E8D14FF0500383F315
:103A20001188BFF36F8FBFF34F8FFEE70C37002075
:103A300070B582B006460C46FFF7D4FB01A8FFF72D
:103A4000ABFF019B33BB05460CB9B04219D224B180
:103A5000124A12681268DAB901242246711B104B0F
:103A60001868FFF74FF9FFF757FCA8B94FF0E023AC
:103A70004FF08052C3F8042DBFF34F8FBFF36F8F09
:103A80000AE0FFF749FC29463046FFF79BFF03E0B9
:103A90001C46E2E7FFF740FC02B070BD1037002083
:103AA0003038002010B588B002E0049B002B0FDAFC
:103AB000002204A93D4B1868FFF761F8002873D075
:103AC000049B002BF1DA07990698059B9847ECE7D1
:103AD000069C636913B1201DFEF7D6FD03A8FFF70E
:103AE0005BFF049B092BE3D8DFE803F005050530F5
:103AF00037500505303794F8283043F0010384F837
:103B00002830059BA169024619442046FFF742FE72
:103B10000028CDD0236A2046984794F8283013F027
:103B2000040FC5D0A269002100910B4605980244FC
:103B30002046FFF7BDFE0028BAD14FF0500383F3B3
:103B40001188BFF36F8FBFF34F8FFEE794F82830D3
:103B500023F0010384F82830AAE794F8283043F0D2
:103B6000010384F828300599A16131B1034602466A
:103B700001442046FFF70EFE9AE74FF0500383F30F
:103B80001188BFF36F8FBFF34F8FFEE794F8283093
:103B900013F0020F04D023F0010384F8283087E7E4
:103BA000204600F0B1F983E708B010BD303800209E
:103BB00000B583B001A8FFF7DDFD0199FFF738FFDD
:103BC000FFF770FFF6E708B54FF0E0231B69FFF73A
:103BD00079FD012800D108BD00F0ACFAFBE7000038
:103BE000EFF305832BB9064B186828B901221A6038
:103BF00070476FF0050070474FF0FF30704700BF0F
:103C0000943A0020EFF3058373B90A4B1B68012B2C
:103C10000DD110B50024084BDC77064B02221A6048
:103C2000FFF792FA204610BD6FF0050070474FF085
:103C3000FF307047943A002000ED00E0F0B587B007
:103C400000240594EFF3058474BB68B322B31568B0
:103C5000936903B918235C1E372C49D8546814F0B3
:103C6000010F47D156696EB14FEA960C94682CB19A
:103C7000D7685B2F02D9176907B1C6B92CB14FF0CD
:103C8000FF340EE04FF0800CF0E7D4688CB9146973
:103C900094B14FF0FF3404E01546002418234FF090
:103CA000800C012C0AD0ACB1059807B0F0BD0124FE
:103CB000F7E74FF0FF34F4E70024F2E71469926865
:103CC0000292019400930B4662462946FFF7CCF915
:103CD0000590E9E705AA019200930B461FFA8CF2C2
:103CE0002946FFF7FCF90128DED000230593DBE726
:103CF0000020DAE70020D8E708B5EFF3058333B9F1
:103D000008B9002008BDFFF783FB0020FAE76FF039
:103D10000500F7E7034B0360034B0B608023136040
:103D2000704700BF383A002038380020034B03604A
:103D3000034B0B604FF4807313607047983E002074
:103D4000983A0020124A12F0070F1ED0D11D21F020
:103D50000701C1F5705313440A460E480260002162
:103D600041601344083B23F007030B48036059608C
:103D70001960991A51601360084B1960084B19605B
:103D8000084B4FF000421A6070474FF47053E4E75D
:103D9000F83E00200C7B0020F43E0020007B002039
:103DA000FC7A0020F87A0020164B1A461B688342E2
:103DB000FBD3516802EB010C844509D0416800EB4C
:103DC000010C634509D00360904219D01060704720
:103DD0004068014451601046F0E710B40A4C246872
:103DE000A3420BD05B681944416013681B680360F1
:103DF000904200D010605DF8044B70470460F7E714
:103E0000704700BF0C7B0020F43E002070B50546D3
:103E1000FFF7E8F9364B1B68A3B1364B1B681D4210
:103E20004ED135B1083515F0070F02D025F0070542
:103E30000835002D46D0304B1B68AB4251D32F4A7A
:103E4000146804E0FFF77EFFE7E722461C4663683C
:103E5000AB4202D22368002BF7D1254B1B68A3424B
:103E600041D0166808362368136063685B1B102B0B
:103E700010D9601910F0070F08D04FF0500383F3EA
:103E80001188BFF36F8FBFF34F8FFEE7436065600C
:103E9000FFF78AFF626818490B689B1A0B60184984
:103EA00009688B4201D216490B60124B1B68134301
:103EB000636000232360134A13680133136002E038
:103EC000002600E00026FFF727FA16F0070F0CD0B7
:103ED0004FF0500383F31188BFF36F8FBFF34F8F01
:103EE000FEE70026EFE70026EDE7304670BD00BF95
:103EF000F43E0020F87A0020FC7A00200C7B0020A1
:103F0000007B0020047B0020002834D038B5044614
:103F1000A0F1080550F8043C174A1268134208D172
:103F20004FF0500383F31188BFF36F8FBFF34F8FB0
:103F3000FEE750F8081C41B14FF0500383F311889D
:103F4000BFF36F8FBFF34F8FFEE723EA020340F802
:103F5000043CFFF747F954F8041C084A13680B4463
:103F600013602846FFF720FF054A136801331360EA
:103F7000FFF7D2F938BD7047F87A0020FC7A0020AC
:103F8000087B002082B0002301930D4B1B68B3F126
:103F9000FF3F08D04FF0500383F31188BFF36F8FBA
:103FA000BFF34F8FFEE74FF0500383F31188BFF349
:103FB0006F8FBFF34F8F019B002BFCD002B0704777
:103FC0001000002008480068006880F308884FF05F
:103FD000000080F3148862B661B6BFF34F8FBFF361
:103FE0006F8F00DF00BF000008ED00E0DFF80C007D
:103FF000016841F4700101607047000088ED00E045
:104000004FF0807340F8043C21F0010140F8081C97
:10401000054B40F80C3C40F8202C6FF0020340F8B0
:10402000243C4438704700BF853F00080000000072
:10403000074B19680868B0E8F04F80F30988BFF3B0
:104040006F8F4FF0000080F311887047AFF300804E
:104050000C3200204FF0500383F31188BFF36F8FB1
:10406000BFF34F8F0B4A136801331360012B00D04D
:1040700070474FF0E023D3F8043D13F0FF0FF7D063
:104080004FF0500383F31188BFF36F8FBFF34F8F4F
:10409000FEE700BF10000020094B1B6843B94FF03A
:1040A000500383F31188BFF36F8FBFF34F8FFEE789
:1040B000013B034A13600BB983F31188704700BFBB
:1040C00010000020000000000000000000000000C0
:1040D000EFF30980BFF36F8F154B1A681EF0100FB6
:1040E00008BF20ED108A20E9F04F10602DE909008B
:1040F0004FF0500080F31188BFF34F8FBFF36F8FE5
:10410000FFF7ACF94FF0000080F3118809BC196883
:104110000868B0E8F04F1EF0100F08BFB0EC108A2E
:1041200080F30988BFF36F8F704700BFAFF3008043
:104130000C32002008B54FF0500383F31188BFF311
:104140006F8FBFF34F8FFFF75BF828B14FF0E0237D
:104150004FF08052C3F8042D002383F3118808BD6B
:104160004FF0E022002313619361054B1B68054962
:10417000A1FB03139B09013B5361072313617047A4
:104180000C000020D34D62104FF0E023D3F8002D37
:104190003D4B9A421CD04FF0E023D3F8002D3B4B0F
:1041A0009A421ED030B583B0394B1A78D2B2019200
:1041B000FF221A701B78DBB28DF803309DF80330B4
:1041C00003F05003334A1370334B07221A601BE08D
:1041D0004FF0500383F31188BFF36F8FBFF34F8FFE
:1041E000FEE74FF0500383F31188BFF36F8FBFF3E7
:1041F0004F8FFEE7284A1368013B13609DF8033098
:104200005B00DBB28DF803309DF8033013F0800FB4
:10421000F0D1214B1B68032B08D04FF0500383F3E0
:104220001188BFF36F8FBFF34F8FFEE71B021A4A4F
:10423000136003F4E0631360019BDBB2144A137054
:104240004FF0E024D4F8203D43F47003C4F8203D3F
:10425000D4F8203D43F07043C4F8203DFFF780FFC1
:1042600000250E4B1D60FFF7C1FED4F8343F43F02C
:104270004043C4F8343FFFF7A5FEFFF7EFF8FFF720
:1042800081FE284603B030BD71C20F4170C20F419C
:1042900000E400E0147B0020187B002010000020C8
:1042A000EFF305830F2B0FD9114A9B5CDBB2114A48
:1042B00012789A4208D94FF0500383F31188BFF364
:1042C0006F8FBFF34F8FFEE74FF0E023D3F80C3D25
:1042D00003F4E063084A1268934208D94FF0500390
:1042E00083F31188BFF36F8FBFF34F8FFEE77047E3
:1042F000F0E300E0147B0020187B002008B5FDF7F8
:104300001FFBFCF7B7F9FCF70DFAFCF797FAFCF77F
:10431000B7FAFFF765FCFCF781FAFFF773FC0020A2
:1043200008BD000010B5A6B02E4B01932E4B009394
:104330002E4B2F4A2F49012001F016FF21A801F032
:1043400093FE2D4B21932D4B22932D4B23932D4BDD
:10435000249321A801F096FE00283ED002A801F087
:10436000AFFE0DF1640C02AC0FCCACE80F0023687B
:10437000CCF8003019AB002211460CA801F0B2FDB8
:104380000CAB214A21490AA801F0F6FD02F07CFBA2
:1043900002461F4B0AA909A801F02AFE1EA802F036
:1043A0005DFB802000F01AFB1E90802320930023E9
:1043B0005C1C184A20991E9800F03EFC1E98FBF7E2
:1043C00017FF1F9000221EA909A801F067FD4FF4F6
:1043D0007A70FFF791FC2346EAE72E210E4800F0A1
:1043E00003FCBBE795480008574800084948000807
:1043F000314800083C310020C5460008E946000865
:10440000094700084947000840F7000854EF000832
:1044100060EF00086CEF00082CEF0008124A12F061
:10442000070F1ED0D11D21F00701C1F570531344B1
:104430000A460E480260002141601344083B23F005
:1044400007030B48036059601960991A51601360A3
:10445000084B1960084B1960084B4FF000421A6076
:1044600070474FF47053E4E7207B00202CB7002006
:104470001C7B002028B7002024B7002020B7002094
:10448000164B1A461B688342FBD3516802EB010CA2
:10449000844509D0416800EB010C634509D00360F5
:1044A000904219D010607047406801445160104636
:1044B000F0E710B40A4C2468A3420BD05B6819449F
:1044C000416013681B680360904200D010605DF883
:1044D000044B70470460F7E7704700BF2CB700201B
:1044E0001C7B002070B50546FEF77CFE344B1B6834
:1044F000A3B1344B1B681D424AD135B1083515F0C4
:10450000070F02D025F007050835002D42D02E4BAD
:104510001B68AB424DD32D4A146804E0FFF77EFFC1
:10452000E7E722461C466368AB4202D22368002BB1
:10453000F7D1234B1B68A3423DD016680836236889
:10454000136063685B1B102B10D9601910F0070F04
:1045500008D04FF0500383F31188BFF36F8FBFF380
:104560004F8FFEE743606560FFF78AFF6268164978
:104570000B689B1A0B60164909688B4201D21449DB
:104580000B60104B1B68134363600023236002E041
:10459000002600E00026FEF7BFFE16F0070F0CD045
:1045A0004FF0500383F31188BFF36F8FBFF34F8F2A
:1045B000FEE70026EFE70026EDE7304670BD00BFBE
:1045C0001C7B002020B7002024B700202CB700203F
:1045D00028B7002080B338B50446A0F1080550F88C
:1045E000043C164A1268134208D14FF0500383F37B
:1045F0001188BFF36F8FBFF34F8FFEE750F8081C91
:1046000041B14FF0500383F31188BFF36F8FBFF3B5
:104610004F8FFEE723EA020340F8043CFEF7E2FD79
:1046200054F8041C064A13680B4413602846FFF72D
:1046300027FFFEF771FE38BD704700BF20B700208E
:1046400024B7002050F8043C024A106823EA000016
:10465000704700BF20B7002070B505460C46FEF736
:10466000C1FD2046FFF73EFF064678B175B12846EA
:10467000FFF7E8FF0838844200D304462246294663
:10468000304600F0BBF92846FFF7A4FFFEF744FED2
:10469000304670BD38B505460C46FEF7A3FD05FB58
:1046A00004F42046FFF71EFF0546034603E0002101
:1046B00003F8011B1446621E002CF8D1FEF72CFEF5
:1046C000284638BD08B5034605490A6802440A6011
:1046D00004490A6813440B60FFF704FF08BD00BFDC
:1046E00034B7002038B7002058B110B50446FFF7A2
:1046F000A9FF044A13681B1A13602046FFF76AFFDC
:1047000010BD704738B7002038B50C460C4A136806
:104710000B4413600B4A13680B44136058B10546F1
:10472000FFF790FF074A13681B1A136021462846BB
:10473000FFF792FF38BD0846FFF7D4FEFAE700BF47
:1047400034B7002038B7002010B501FB00F3054C4A
:1047500022681A442260044C226813442360FFF745
:1047600099FF10BD34B7002038B7002000000000CA
:104770002DE9F04107460E46144615A3D3E9002360
:10478000FBF78EFD0D4680462060616010A3D3E9E3
:10479000002338463146FBF783FDA260002A01DB87
:1047A000BDE8F081084981FB0231D317C3EB2173C7
:1047B0000133B8EB030165EBE375216065600349E4
:1047C00001FB0322A260EBE7A12FB84400CA9A3B89
:1047D00000CA9A3B0000000030B583B00D460024AB
:1047E000009401946846FEF7FDFE0099019A4FEA95
:1047F000411C4CEAD26C53019B1A6CEB010C4FEA42
:104800004C2C4CEAD35C5B029B1841EB0C0C4FEA3E
:104810008C1E4EEA936E9801C31A6EEB0C0C98181E
:104820002A4641EB0C01FFF7A3FF204603B030BD41
:1048300008B54FF400620349D0F88C02FDF7CCFEB6
:10484000012008BD3CB7002008B5D0F88C02FDF768
:10485000B1FB012008BD70B5D0F88C5295F83D3001
:10486000DBB2202B01D0002070BD144692B2284646
:10487000FDF752FB064646B995F83D30DBB2202BDA
:1048800003D00120FFF738FAF5E70EB92046EBE731
:104890000020E9E72DE9F8430D4614461F46D0F8FD
:1048A0008C82002672B6D8F838301B685868C0F57C
:1048B0000060DFF85490C9F8000062B601360120AC
:1048C000FFF71AFA0E4B1B68D9F80020934214D157
:1048D000BE42E7DB002008E00A49C95C29540133E5
:1048E000C3F30A0306490B600130054B1B689A426B
:1048F00001D0A042F0D3BDE8F8830020F5E700BF67
:104900003CBF00203CB7002040BF0020DFF834D07F
:104910000D480E490E4A002302E0D458C450043317
:10492000C4188C42F9D30B4A0B4C002301E01360EE
:104930000432A242FBD3FDF76BFE00F02BF8FFF729
:10494000DDFC70470000032000000020180100205B
:1049500024FC000818010020600A0120FEE7000086
:10496000014B1868704700BF1400002008B5074BC2
:10497000044613B10021AFF30080054B1868836A29
:1049800003B198472046FBF7F3FE00BF000000008C
:1049900080EF000870B50D4D0D4C641BA41000266F
:1049A000A64209D10B4D0C4C0AF07AFA641BA410F4
:1049B0000026A64205D170BD55F8043B9847013644
:1049C000EEE755F8043B98470136F2E718FC00087B
:1049D00018FC000818FC000820FC0008024B0146E7
:1049E000186800F08DB800BF14000020024B01468B
:1049F000186800F019B800BF140000200A44914262
:104A000000F1FF3300D1704710B511F8014B03F8E6
:104A1000014F9142F9D110BD02440346934200D1A7
:104A2000704703F8011BF9E737B5002944D051F866
:104A3000043C0190002BA1F10404B8BFE41800F07D
:104A400027FA1E4A0198136833B96360146003B0F3
:104A5000BDE8304000F022BAA34208D925686119A8
:104A60008B4201BF19685B6849192160EDE71A465E
:104A70005B680BB1A342FAD911685518A5420BD156
:104A8000246821445418A3421160E0D11C685B687B
:104A9000536021441160DAE702D90C230360D6E7A2
:104AA000256861198B4204BF19685B68636004BFA5
:104AB000491921605460CAE703B030BD44BF0020EB
:104AC00070B50E4E0C463168054611B900F0A4F8D9
:104AD00030602146284600F09FF8431C0AD0C41CD1
:104AE00024F00304A04207D0211A284600F094F8CD
:104AF000013001D14FF0FF34204670BD48BF002087
:104B00002DE9F041CD1C25F0030508350C2D38BFEB
:104B10000C25002D074601DBA94205D90C233B607B
:104B200000263046BDE8F0812E4E00F0B1F9336822
:104B30001C4634BB29463846FFF7C2FF431C0446D7
:104B40004DD134682646002E40D123683146384680
:104B500004EB030800F060F880453AD12168033582
:104B60006D1A25F0030508350C2D38BF0C25294694
:104B70003846FFF7A5FF01302BD023682B44236074
:104B80000EE02268521B1ED40B2A16D96119A342CB
:104B9000256018BF5960636808BF316062514B607F
:104BA000384604F10B0600F079F926F00706231DBC
:104BB000F21AB6D09B1BA350B3E76268A3420CBFA6
:104BC00032605A60ECE723466468B2E734467668A0
:104BD000B9E70C233B60384600F060F9A1E7256097
:104BE000DEE700BF44BF00200FB40A4B13B51C68BA
:104BF00024B1A36913B9204600F0AAF805AB049AC2
:104C0000A1680193204600F0D5FA02B0BDE810403B
:104C100004B070471400002038B5064D0023044648
:104C200008462B60FBF7C8FD431C02D12B6803B17B
:104C3000236038BD50BF00200CB430B5174B0C1E9C
:104C40001D689DB008DA8B232B604FF0FF301DB03C
:104C5000BDE8304002B070474FF40273ADF8143035
:104C600014BF04F1FF332346049307934FF6FF73F9
:104C700002900690ADF81630209A21AB02A9284682
:104C8000019300F06DF9431CBCBF8B232B60002CFB
:104C9000DDD0029B00221A70D9E700BF140000206B
:104CA000002310B50446C0E90033C0E90433836033
:104CB00081814366C2818361194608225C30FFF717
:104CC000ABFE054B6362054BA362054BE362054BEC
:104CD0002462236310BD00BF3D5700085F570008E2
:104CE00097570008BB570008014900F0AFB800BF54
:104CF000955A000870B568224D1E55430E4605F1C1
:104D00007401FFF7FDFE044640B10021C0E9001622
:104D10000C30A06005F16802FFF77EFE204670BDF2
:104D2000014800F0B3B800BF4EBF0020014800F0BA
:104D3000AEB800BF4EBF0020014800F0A7B800BFCA
:104D40004FBF0020014800F0A2B800BF4FBF0020B5
:104D500010B50446FFF7F0FFA3691BB1BDE8104092
:104D6000FFF7F0BFC4E912332365134B134A1B68E6
:104D7000A262A34204BF0123A361204600F020F8F1
:104D80006060204600F01CF8A060204600F018F893
:104D90000022E06004216068FFF782FFA068012222
:104DA0000921FFF77DFFE06802221221FFF778FF5B
:104DB0000123A361D2E700BF80EF0008E94C00089F
:104DC000F8B50746FFF7ACFF1E4B1E68B36913B971
:104DD0003046FFF7BDFF4836D6E90134013B03D525
:104DE00033680BB33668F7E7B4F90C50D5B9164BF6
:104DF000E36004F15800656600F047F8FFF796FF9E
:104E0000C4E90155C4E904552560A5610822294675
:104E100004F15C00FFF700FEC4E90D55C4E912552A
:104E20002046F8BD6834D9E704213846FFF762FF11
:104E3000044630600028D5D1FFF778FF0C233B6093
:104E4000EEE700BF80EF00080100FFFF2DE9F84307
:104E50000646884600F148040027D4E90195B9F1D7
:104E6000010905D52468002CF7D13846BDE8F88340
:104E7000AB89012B07D9B5F90E30013303D0294690
:104E80003046C04707436835E9E7704770477047C9
:104E90000148FFF7FBBF00BF4DBF00200148FFF7EF
:104EA000F6BF00BF4DBF00202DE9F0478E689E423F
:104EB00082460C4690461F4638D88A8912F4906F75
:104EC00032D025680969A5EB0109656905EB45053F
:104ED00005EBD57501334B446D109D4238BF1D461F
:104EE000530531D52946FFF70BFE064650B90C2372
:104EF000CAF80030A38943F04003A3814FF0FF308C
:104F0000BDE8F08721694A46FFF778FDA38923F4BD
:104F1000906343F08003A381266165614E44A5EB55
:104F200009052660A5603E46BE4200D93E4620687F
:104F30003246414600F062FEA3689B1BA3602368D3
:104F4000334423600020DBE72A4600F071FE06466A
:104F50000028E1D121695046FFF766FDC7E7000050
:104F60002DE9F04F98468B891B069DB007460D46EC
:104F700014460ED50B6963B94021FFF7C1FD2860C7
:104F8000286120B90C233B604FF0FF30D1E0402373
:104F90006B610023099320238DF82930CDF80C8014
:104FA0003023DFF8A8818DF82A304FF0010923461D
:104FB0009A4613F8012B0AB1252AF9D1BAEB040B52
:104FC0000BD05B46224629463846FFF76DFF01307D
:104FD00000F0AA80099A5A4409929AF80030002BEE
:104FE00000F0A28000234FF0FF32CDE905230AF143
:104FF000010A049307938DF853301A9354460522FF
:1050000014F8011B5148FBF7FBF8049AD8B9D006F5
:1050100044BF20238DF85330110744BF2B238DF854
:1050200053309AF800302A2B15D0079A54460020A6
:105030004FF00A0C214611F8013B303B092B4ED9A9
:10504000B0B1079214E0A0EB080309FA03F313438D
:105050000493A246D2E7039B191D1B680391002B02
:10506000BBBF5B4242F0020207930793B8BF0492B2
:1050700023782E2B0CD163782A2B35D1039B1A1D54
:105080001B680392002BB8BF4FF0FF330234059327
:10509000DFF8C8A0217803225046FBF7B1F840B1F1
:1050A0004023A0EB0A0003FA00F0049B0343013401
:1050B000049314F8011B26488DF828100622FBF7EC
:1050C0009FF8002838D0234B1BBB039B073323F0EA
:1050D000070308330393099B3344099367E70CFBE9
:1050E00002320C460120A5E700230134059319463E
:1050F0004FF00A0C204610F8012B303A092A03D948
:10510000002BC5D00591C3E70CFB01210446012308
:10511000F0E703AB00932A460F4B04A93846AFF3E0
:105120000080421C0646D6D1AB895B063FF52CAF0A
:1051300009981DB0BDE8F08F03AB00932A46064BDB
:1051400004A9384600F0D4F9EBE700BFE4EF00080B
:10515000EEEF000800000000A94E0008EAEF00088A
:105160009368013B002B10B4936008DA9469A34262
:1051700001DB0A2903D15DF8044B00F023BB13685F
:10518000581C1060197008465DF8044B7047F8B55C
:1051900006460F461446D518AC4201D1002007E060
:1051A00014F8011B3A463046FFF7DAFF431CF3D1EF
:1051B000F8BD00002DE9F04F0D469DB0144698460D
:1051C000064618B183690BB9FFF7C2FD894B9D42B2
:1051D0001BD175686B6ED90705D4AB899A0502D4CB
:1051E000A86DFFF753FEAB891B0701D52B69EBB9FF
:1051F0002946304600F04AFBC0B16B6EDC070ED585
:105200004FF0FF301DB0BDE8F08F7B4B9D4201D1C8
:10521000B568DFE7794B9D4208BFF568DAE7AB89EF
:105220009805EDD4A86DFFF732FEE9E70023099356
:1052300020238DF82930CDF80C803023DFF8C08191
:105240008DF82A304FF0010923469A4613F8012BB6
:105250000AB1252AF9D1BAEB040B0BD05B462246E2
:1052600029463046FFF793FF013000F0AA80099AE3
:105270005A4409929AF80030002B00F0A2800023D3
:105280004FF0FF32CDE905230AF1010A0493079399
:105290008DF853301A935446052214F8011B5848D0
:1052A000FAF7AEFF049AD8B9D10644BF20238DF88F
:1052B0005330130744BF2B238DF853309AF8003036
:1052C0002A2B15D0079A544600204FF00A0C21468D
:1052D00011F8013B303B092B4ED9B0B1079214E0D5
:1052E000A0EB080309FA03F313430493A246D2E7A1
:1052F000039B191D1B680391002BBBBF5B4242F04F
:10530000020207930793B8BF049223782E2B0CD187
:1053100063782A2B35D1039B1A1D1B680392002B3F
:10532000B8BF4FF0FF3302340593DFF8E4A02178D3
:1053300003225046FAF764FF40B14023A0EB0A0075
:1053400003FA00F0049B03430134049314F8011B97
:105350002C488DF828100622FAF752FF00283FD07B
:10536000294B1BBB039B073323F00703083303932D
:10537000099B3B44099367E70CFB02320C46012072
:10538000A5E700230134059319464FF00A0C204687
:1053900010F8012B303A092A03D9002BC5D005910A
:1053A000C3E70CFB012104460123F0E703AB0093A4
:1053B0002A46164B04A93046AFF300800746781CF6
:1053C000D6D16B6ED90705D4AB899A0502D4A86DE6
:1053D000FFF75DFDAB895B063FF512AF099811E75A
:1053E00003AB00932A46094B04A9304600F080F82D
:1053F000E4E700BFA4EF0008C4EF000884EF000852
:10540000E4EF0008EEEF0008000000008F510008F4
:10541000EAEF00082DE9F047164699468A680B69BD
:10542000DDF820809342B8BF1346336091F84320E3
:1054300007460C460AB1013333602368990642BF20
:10544000336802333360256815F0060506D104F190
:10545000190AE36832689B1AAB4226DC94F84320B1
:10546000131E226818BF012392062BD404F14302B5
:1054700049463846C04701301ED02368E568326887
:1054800003F00603042B08BFAD1AA36822690CBF02
:1054900025EAE57500259342C4BF9B1AED18002646
:1054A0001A34B5421AD1002008E001235246494679
:1054B0003846C047013003D14FF0FF30BDE8F087D8
:1054C0000135C6E7E1185A1C302081F84300224418
:1054D00094F8451082F843100233C7E701232246AF
:1054E00049463846C0470130E6D00136D9E70000CA
:1054F0002DE9FF470F7E0C9D782F914680460C4684
:105500009A4601F1430207D8622F0AD8002F00F013
:10551000D880582F00F0A38004F1420584F842702F
:105520003AE0A7F16303152BF6D801A151F823F057
:10553000895500089D55000819550008195500089F
:1055400019550008195500089D55000819550008FF
:10555000195500081955000819550008A9560008E2
:10556000CD5500088B56000819550008195500083C
:10557000CB56000819550008CD55000819550008EC
:1055800019550008935600082B681A1D1B682A60DD
:1055900004F1420584F842300123A3E02068296821
:1055A000060601F104030AD50E682B60002E03DA0B
:1055B0002D23764284F843305E480A2319E00E68B2
:1055C0002B6010F0400F18BF36B2EFE72B68206851
:1055D000191D2960010601D51E6802E04606FBD5AB
:1055E0001E8854486F2F0CBF08230A23002184F81B
:1055F00043106568A560002DA2BF216821F0040159
:1056000021600EB9002D4DD01546B6FBF3F103FB1A
:105610001167C75D05F8017D3746BB420E46F4D9D8
:10562000082B0BD12368DE0708D5236961689942EE
:10563000DEBF302305F8013C05F1FF35521B226126
:10564000CDF800A04B4603AA21464046FFF7E2FEF4
:1056500001304CD14FF0FF3004B0BDE8F087354841
:1056600081F845702968236851F8046B29601D068C
:1056700014D5DF0744BF43F0200323601EB923681D
:1056800023F0200323601023B0E7236843F02003B6
:1056900023607823284884F84530E3E7590648BF5B
:1056A000B6B2E6E71546BBE72B6826686169181DA8
:1056B000286035061B6801D5196002E07006FBD52D
:1056C0001980002323611546BAE72B681A1D2A604A
:1056D0001D68626800212846FAF792FD08B1401B58
:1056E000606063682361002384F84330A8E723697E
:1056F0002A4649464046D0470130ABD023689B0735
:1057000013D4E068039B9842B8BF1846A4E701236E
:10571000324649464046D04701309BD00135E368C8
:1057200003995B1AAB42F2DCEBE7002504F11906A2
:10573000F5E700BFF5EF000806F0000810B50C46CD
:10574000B1F90E1000F0A4FA0028ABBF636DA38975
:105750001B1823F48053ACBF6365A38110BD2DE9F2
:10576000F0411F468B89DB0505460C46164605D5DC
:10577000B1F90E100223002200F0C8F9A389B4F990
:105780000E1023F48053A38132463B462846BDE8E1
:10579000F04100F069B810B50C46B1F90E1000F0F8
:1057A000B5F9431CA38915BF606523F4805343F406
:1057B0008053A38118BFA38110BDB1F90E1000F072
:1057C000D3B80000F8B50E461446054618B18369F3
:1057D0000BB9FFF7BDFA214B9C422BD16C68A36932
:1057E000A360A3891A072FD523696BB323692068A7
:1057F000C01A6369F6B28342374604DC2146284664
:1058000000F048F930BBA368013BA36023685A1C31
:1058100022601E7063690130834204D0A389DB07D4
:1058200006D50A2E04D12146284600F033F988B95E
:105830003846F8BD0A4B9C4201D1AC68CFE7094B12
:105840009C4208BFEC68CAE72146284600F01EF8D3
:105850000028CBD04FF0FF37EAE700BFA4EF0008E5
:10586000C4EF000884EF000838B5074D0446084629
:10587000114600222A601A46FAF790FF431C02D113
:105880002B6803B1236038BD50BF0020324B70B588
:105890001D6806460C4625B1AB6913B92846FFF7CB
:1058A00057FA2E4B9C420FD16C68A389B4F90C2097
:1058B00019072CD4DD0611D40923336042F04003CC
:1058C000A3814FF0FF303EE0254B9C4201D1AC68F4
:1058D000EBE7244B9C4208BFEC68E6E7580712D57B
:1058E000616B41B104F14403994202D03046FFF7A5
:1058F0009BF800236363A38923F02403A38100237F
:10590000636023692360A38943F00803A3812369AB
:105910004BB9A38903F42073B3F5007F03D021466C
:10592000304600F02BF9A089B4F90C2010F00103E7
:105930000AD00023A36063695B42A361236943B972
:1059400010F08000BAD170BD810758BF6369A360B1
:10595000F4E70020F7E700BF14000020A4EF0008E0
:10596000C4EF000884EF000838B5064D0023044654
:1059700008462B60FAF746FF431C02D12B6803B19F
:10598000236038BD50BF00208A892DE9F0410546CB
:1059900010070C4658D44B68002B05DC0B6C002B11
:1059A00002DC0020BDE8F081E66A002EF9D0002379
:1059B00012F480522F682B6032D0606DA3895A0791
:1059C00005D56368C01A636B0BB1236CC01A002342
:1059D0000246E66A216A2846B047431CA38906D1DD
:1059E00029681D292CD82A4ACA40D60728D5002262
:1059F0006260D9042269226004D5421C01D12B685F
:105A000003B96065616B2F600029CAD004F14403BB
:105A1000994202D02846FFF707F800206063C1E7EB
:105A2000216A01232846B047411CC7D12B68002BAF
:105A3000C4D01D2B01D0162B01D12F60B1E7A38953
:105A400043F04003A381ADE70F69002FA9D093076E
:105A50000E6808BF4B690F6018BF0023A6EB07084C
:105A60008B60B8F1000F9CDD216AA66A43463A4676
:105A70002846B047002806DCA38943F04003A381F1
:105A80004FF0FF308EE70744A8EB0008E9E700BFBE
:105A90000100402038B50B6905460C4613B90025B6
:105AA000284638BD18B183690BB9FFF751F9144B7B
:105AB0009C421BD16C68B4F90C30002BEFD0626EA5
:105AC000D00704D4990502D4A06DFFF7DFF928466A
:105AD0002146FFF759FF636EDA070546E0D4A38934
