:020000040800F2
:1000000000A00020F90E0008AD020008AF020008B1
:10001000B1020008B3020008B502000800000000A9
:10002000000000000000000000000000B70200080F
:10003000B902000800000000BB020008BD02000871
:10004000490F0008490F0008490F0008490F000830
:10005000490F0008490F0008490F0008490F000820
:10006000490F0008490F0008490F0008490F000810
:10007000490F0008490F0008490F0008490F000800
:10008000490F0008490F0008490F0008490F0008F0
:10009000490F0008490F0008490F0008490F0008E0
:1000A000490F0008490F0008490F0008490F0008D0
:1000B000490F0008490F0008490F0008490F0008C0
:1000C000490F0008490F0008490F0008490F0008B0
:1000D000490F0008490F0008490F0008490F0008A0
:1000E000490F0008490F0008490F0008490F000890
:1000F000490F0008490F0008490F0008490F000880
:10010000000000000000000000000000490F00088F
:10011000490F0008490F0008490F0008490F00085F
:10012000490F0008490F0008490F0008490F00084F
:10013000490F0008490F00080000000000000000FF
:10014000490F0008490F0008490F0008000000008F
:10015000000000000000000000000000000000009F
:100160000000000000000000490F0008490F0008CF
:10017000490F00080000000000000000000000001F
:0801800000000000490F000817
:1001880010B5054C237833B9044B13B10448AFF3C9
:1001980000800123237010BD0C0000200000000027
:1001A800A40F000808B5034B1BB103490348AFF37C
:1001B800008008BD0000000010000020A40F000807
:1001C80072B6FEE700B591B02822002106A800F01B
:1001D800DDFE002301930293039304930593012307
:1001E80006934FF4A02207920A9302230D934FF42B
:1001F80080330E934FF4E0130F9306A800F0D4F861
:1002080080B90F23019302210291002303934FF435
:1002180080620492059301A800F018FC20B911B07F
:100228005DF804FBFFF7CCFFFFF7CAFF30B589B0D4
:10023800002403940494059406940794174B5A6970
:1002480042F480025A615A6902F480020092009ACC
:100258005A6942F400125A615A6902F40012019272
:10026800019A5A6942F400325A615B6903F4003317
:100278000293029B0A4D22464FF47F41284600F024
:100288009DFD4FF47F430393012304930594069443
:1002980003A9284600F0AEFC09B030BD00100240AA
:1002A80000100048FEE7FEE7FEE7FEE7FEE77047BE
:1002B8007047704708B500F051F808BD82B00A4B86
:1002C8009A6942F001029A619A6902F00102009269
:1002D800009ADA6942F08052DA61DB6903F08053F0
:1002E8000193019B02B070470010024010B504460C
:1002F8000E4B18784FF47A73B3FBF0F30C4A10687E
:10030800B0FBF3F000F0B2FD68B90F2C01D9012061
:100318000AE0002221464FF0FF3000F06FFD054B48
:100328001C60002000E0012010BD00BF000000207C
:10033800080000200400002008B5074A136843F0AD
:1003480010031360032000F047FD0F20FFF7CEFFD6
:10035800FFF7B4FF002008BD00200240034A1168DF
:10036800034B1B780B441360704700BF2800002024
:1003780000000020014B1868704700BF28000020CB
:1003880038B50446FFF7F6FF0546B4F1FF3F02D043
:10039800044B1B781C44FFF7EDFF401BA042FAD327
:1003A80038BD00BF00000020002800F0018370B5B0
:1003B80082B00446036813F0010F3BD0B54B5B686D
:1003C80003F00C03042B1ED0B24B5B6803F00C0344
:1003D800082B13D06368B3F5803F68D0002B40F03A
:1003E800928003F1804303F504331A6822F48032C3
:1003F8001A601A6822F480221A605DE0A54B5B68D7
:1004080013F4803FE6D04FF4003393FAA3F3A14BE3
:1004180019684FF4003393FAA3F3B3FA83F303F0A4
:100428001F03012202FA03F30B4203D06368002B77
:1004380000F0C082236813F0020F00F0C580954BCE
:100448005B6813F00C0F00F09C80924B5B6803F024
:100458000C03082B00F08F802369002B00F0F2803A
:10046800012292FAA2F3B3FA83F303F1845303F55A
:1004780084139B001A60FFF77DFF0546022393FA59
:10048800A3F3844B1968022393FAA3F3B3FA83F313
:1004980003F01F03012202FA03F30B4240F0C3806A
:1004A800FFF768FF401B0228E8D903208BE2794A4E
:1004B800136843F480331360764AD36A23F00F033A
:1004C800A1680B43D3626368002B36D0FFF752FF55
:1004D80005464FF4003393FAA3F36E4B19684FF4B3
:1004E800003393FAA3F3B3FA83F303F01F03012253
:1004F80002FA03F30B429DD1FFF73CFF401B64282F
:10050800E7D903205FE2B3F5A02F09D0614B1A6841
:1005180022F480321A601A6822F480221A60CBE72B
:1005280003F18043A3F53C331A6842F480221A6031
:100538001A6842F480321A60BEE7FFF71BFF0546CF
:100548004FF4003393FAA3F3524B19684FF4003376
:1005580093FAA3F3B3FA83F303F01F03012202FA19
:1005680003F30B423FF466AFFFF704FF401B642818
:10057800E6D9032027E2474B5B6813F4803F7FF4FA
:100588006BAF022393FAA3F3424B1968022393FA41
:10059800A3F3B3FA83F303F01F03012202FA03F370
:1005A8000B4203D02369934240F00682394803681E
:1005B80023F0F8036169F82292FAA2F2B2FA82F201
:1005C80001FA02F213430360236813F0080F00F0E6
:1005D8008D80A369002B61D0012191FAA1F2B2FAB2
:1005E80082F22D4B13449B001960FFF7C3FE0546AA
:1005F800022393FAA3F293FAA3F293FAA3F2254AF9
:10060800516A93FAA3F3B3FA83F303F01F030122A9
:1006180002FA03F30B4269D1FFF7ACFE401B022834
:10062800E6D90320CFE11B48036823F0F80361698A
:10063800F82292FAA2F2B2FA82F201FA02F2134313
:100648000360C1E7012393FAA3F3B3FA83F303F139
:10065800845303F584139B0000221A60FFF78AFE77
:100668000546022393FAA3F30A4B1968022393FA67
:10067800A3F3B3FA83F303F01F03012202FA03F38F
:100688000B42A1D0FFF776FE401B0228E9D90320D0
:1006980099E100BF0010024020819010012292FAD7
:1006A800A2F2B2FA82F2B74B13449B0000221A60FE
:1006B800FFF760FE0546022393FAA3F293FAA3F22A
:1006C80093FAA3F2B04A516A93FAA3F3B3FA83F305
:1006D80003F01F03012202FA03F30B4206D0FFF7CF
:1006E80049FE401B0228E6D903206CE1236813F079
:1006F800040F00F0A980A44BDB6913F0805F20D1C0
:10070800A14BDA6942F08052DA61DB6903F0805369
:100718000193019B01259D4B1B6813F4807F12D028
:10072800E368012B23D073BB03F1804303F5043343
:100738001A6A22F001021A621A6A22F004021A6284
:100748001AE00025E7E7914A136843F480731360C1
:10075800FFF710FE06468D4B1B6813F4807FDFD130
:10076800FFF708FE801B6428F5D903202BE1864A91
:10077800136A43F001031362E368002B3CD0FFF7D0
:10078800F9FD06462BE0052B09D07F4B1A6A22F0AB
:1007980001021A621A6A22F004021A62ECE77A4B22
:1007A8001A6A42F004021A621A6A42F001021A62D4
:1007B800E2E7754B196A022393FAA3F3B3FA83F3BA
:1007C80003F01F03012202FA03F319423BD1FFF79A
:1007D800D1FD801B41F28833984200F2EF8002235A
:1007E80093FAA3F293FAA3F3002BE2D1022393FA2C
:1007F800A3F3654B596ADEE7FFF7BCFD064615E033
:10080800614B196A022393FAA3F3B3FA83F303F053
:100818001F03012202FA03F3194214D0FFF7AAFDBD
:10082800801B41F28833984200F2CA80022393FA6F
:10083800A3F293FAA3F3002BE2D1022393FAA3F3D2
:10084800514B596ADEE7B5BBE369002B00F0BA806B
:100858004D4A526802F00C02082A00F09980022BD7
:100868002FD04FF0807393FAA3F3B3FA83F303F115
:10087800845303F584139B0000221A60FFF77AFD66
:1008880004464FF0007393FAA3F33F4B19684FF0F7
:10089800007393FAA3F3B3FA83F303F01F0301225F
:1008A80002FA03F319426BD0FFF764FD001B02281C
:1008B800E7D9032087E0344AD36923F08053D36112
:1008C800C2E74FF0807393FAA3F3B3FA83F303F10B
:1008D800845303F584139B0000221A60FFF74AFD36
:1008E80005464FF0007393FAA3F3274B19684FF0AE
:1008F800007393FAA3F3B3FA83F303F01F030122FF
:1009080002FA03F3194206D0FFF734FD401B022810
:10091800E7D9032057E01C494B6823F47413626A33
:10092800206A024313434B604FF0807393FAA3F39A
:10093800B3FA83F303F1845303F584139B00012274
:100948001A60FFF717FD04464FF0007393FAA3F3FC
:100958000D4B19684FF0007393FAA3F3B3FA83F3BE
:1009680003F01F03012202FA03F3194206D1FFF72D
:1009780001FD001B0228E7D9032024E0002022E023
:10098800002020E0208190100010024000700040FC
:10099800012B1AD0104B5B6803F48031226A914214
:1009A80015D103F47013626A934212D100200AE051
:1009B80001207047012006E0012004E0032002E046
:1009C800032000E0002002B070BD0120FBE70120F9
:1009D800F9E70120F7E700BF00100240164B5B68FB
:1009E80003F00C02082A01D01448704703F4701170
:1009F8004FF4701292FAA2F2B2FA82F221FA02F2DB
:100A08000F49885C0C4AD26A02F00F020F2191FA52
:100A1800A1F1B1FA81F1CA400A498A5C13F4803F16
:100A280005D0064BB3FBF2F303FB00F07047064B0F
:100A380003FB00F0704700BF0010024000127A006C
:100A4800CC0F0008DC0F000800093D00002800F06A
:100A5800BE8070B50D460446614B1B6803F0070362
:100A68008B420BD25E4A136823F007030B431360D3
:100A7800136803F007038B4240F0AB80236813F040
:100A8800020F06D0574A536823F0F003A1680B43BE
:100A98005360236813F0010F5AD06368012B2DD0DF
:100AA800022B40D0022292FAA2F24E4A1068022289
:100AB80092FAA2F2B2FA82F202F01F02012101FABE
:100AC80002F2104200F0878046494A6822F0030289
:100AD80013434B60FFF74EFC0646424B5B6803F03E
:100AE8000C036268B3EB820F32D0FFF743FC801B24
:100AF80041F288339842F0D9032067E04FF400327E
:100B080092FAA2F2374A10684FF4003292FAA2F22F
:100B1800B2FA82F202F01F02012101FA02F2024245
:100B2800D2D1012052E04FF0007292FAA2F22D4A7F
:100B380010684FF0007292FAA2F2B2FA82F202F052
:100B48001F02012101FA02F21042BDD101203DE04D
:100B5800234B1B6803F00703AB420AD9204A1368EA
:100B680023F007032B431360136803F00703AB421A
:100B780033D1236813F0040F06D01A4A536823F4BC
:100B8800E063E1680B435360236813F0080F07D054
:100B9800144A536823F46053216943EAC10353603C
:100BA800FFF71CFF0F4B5B6803F0F003F02292FA8B
:100BB800A2F2B2FA82F2D3400B4AD35CD8400B4B74
:100BC80018600B4B1868FFF791FB002070BD0120DF
:100BD80070470120FAE70120F8E70120F6E700BF97
:100BE8000020024000100240EC0F0008080000201E
:100BF80004000020F0B583B0002362E085685E0041
:100C08000324B44025EA0405CC68B4402C4384602E
:100C1800446824EA0C0C4C68C4F300149C4044EA71
:100C28000C0444605EE0DD08083550F8256003F0E8
:100C380007044FEA840C0F2404FA0CF426EA040E85
:100C48000C6904FA0CF444EA0E0440F8254060E00C
:100C5800042400E0002404FA0EF42C430CF1020CE6
:100C6800524D45F82C40524C2568D44325EA0206DB
:100C78004F6817F4803F01D042EA05064C4D2E60BC
:100C88006D6804EA05064F6817F4003F01D042EA90
:100C98000506474D6E60AD6804EA05064F6817F40F
:100CA800801F01D042EA0506414DAE60ED682C4038
:100CB8004E6816F4001F01D042EA05043C4AD4608D
:100CC80001330A6832FA03F46ED04FF0010C0CFAC3
:100CD80003FC1CEA0202F3D04C6804F00304013C54
:100CE800012C8BD94C6804F00304032C0CD0C46885
:100CF8005D004FF0030C0CFA05FC24EA0C0C8C6820
:100D0800AC4044EA0C04C4604C6804F00304022CB0
:100D180089D004684FEA430E4FF0030C0CFA0EFC1E
:100D280024EA0C0C4C6804F0030404FA0EF444EAB8
:100D38000C0404604C6814F4403FC1D01D4CA569F4
:100D480045F00105A561A46904F001040194019C22
:100D58004FEA930C0CF10205144C54F8255003F09B
:100D680003044FEA840E0F2404FA0EF425EA04055E
:100D7800B0F1904F3FF46EAF0F4CA0420ED004F587
:100D88008064A0420CD004F58064A0420AD004F527
:100D98008064A0423FF45CAF05245CE701245AE775
:100DA800022458E7032456E703B0F0BD00000140D1
:100DB8000004014000100240000400480AB18161AB
:100DC800704781627047436901EA030221EA03011F
:100DD80041EA024181617047074AD36823F4E0631E
:100DE8001B041B0C000200F4E060034343F0BF63E4
:100DF80043F40033D360704700ED00E000B5194BB1
:100E0800DB68C3F30223C3F1070CBCF1040F28BF4E
:100E18004FF0040C03F1040EBEF1060F18D9033B82
:100E28004FF0FF3E0EFA0CFC21EA0C0199400EFA35
:100E380003F322EA0303194300280BDB0901C9B2B3
:100E480000F1604000F5614080F800135DF804FB94
:100E58000023E5E700F00F000901C9B2024B19545D
:100E6800F4E700BF00ED00E014ED00E00138B0F158
:100E7800807F0BD24FF0E0235861054AF02182F8B9
:100E880023100020986107221A61704701207047DB
:100E980000ED00E0034AD2F8883043F47003C2F84A
:100EA8008830704700ED00E010B584B0FFF744FAD1
:100EB800FFF788F9FFF7BAF90B4B0FCB04AC04E93D
:100EC8000F000EE004AB03EB440333F8101C074893
:100ED800FFF779FF4FF47A70FFF752FA0134072CC5
:100EE800F0D90024FBE700BFBC0F00080010004841
:100EF800DFF834D00D480E490E4A002302E0D458DA
:100F0800C4500433C4188C42F9D30B4A0B4C002349
:100F180001E013600432A242FBD3FFF7BBFF00F0ED
:100F280011F8FFF7C1FFFEE700A000200000002035
:100F38000C000020041000080C0000202C000020E9
:100F4800FEE7000070B50D4D0D4C641BA410002683
:100F5800A64209D10B4D0C4C00F020F8641BA410DC
:100F68000026A64205D170BD55F8043B98470136C6
:100F7800EEE755F8043B98470136F2E7FC0F000806
:100F8800FC0F0008FC0F000800100008024403468C
:100F9800934200D1704703F8011BF9E7F8B500BF89
:100FA800F8BC08BC9E467047F8B500BFF8BC08BC42
:040FB8009E4670479A
:100FBC000001000200040008001000200040008026
:100FCC0002030405060708090A0B0C0D0E0F10107E
:100FDC000102030405060708090A0B0C0D0E0F107D
:100FEC0000000000000000000102030406070809CD
:040FFC00AD0100083B
:04100000890100085A
:0C100400010000001000000000127A0043
:0400000508000EF9E8
:00000001FF
